:020000040800F2
:10000000900F0020790C00086D0400086F040008B0
:1000100073040008770400087B0400080000000057
:100020000000000000000000000000007F04000845
:100030008104000800000000830400088504000813
:10004000930C0008930C0008930C0008930C000814
:10005000930C0008930C0008930C0008930C000804
:10006000930C0008930C0008930C0008930C0008F4
:10007000930C0008930C0008930C0008930C0008E4
:10008000930C0008930C0008930C0008930C0008D4
:100090002D1F0008930C0008930C0008930C000817
:1000A000930C0008930C0008930C0008930C0008B4
:1000B000930C0008930C0008930C0008930C0008A4
:1000C000930C0008930C0008930C0008930C000894
:1000D000930C0008EF0B0008930C0008930C000829
:1000E000930C0008930C0008211F0008930C0008D3
:1000F000930C0008930C0008930C0008930C000864
:10010000930C0008930C0008930C0008930C000853
:10011000930C0008930C0008930C0008930C000843
:10012000930C0008930C0008930C0008930C000833
:1001300000F002F800F05AF80AA090E8000C82449F
:100140008344AAF10107DA4501D100F04FF8AFF27C
:10015000090EBAE80F0013F0010F18BFFB1A43F0A5
:100160000103184730410000504100000A444FF09D
:10017000000C10F8013B13F0070408BF10F8014B06
:100180001D1108BF10F8015B641E05D010F8016B4B
:10019000641E01F8016BF9D113F0080F1EBF10F8AF
:1001A000014BAD1C0C1B09D16D1E58BF01F801CBD2
:1001B000FAD505E014F8016B01F8016B6D1EF9D555
:1001C0009142D6D37047000000230024002500266A
:1001D000103A28BF78C1FBD8520728BF30C148BFAA
:1001E0000B6070471FB51FBD10B510BD03F0B4FF05
:1001F0001146FFF7F7FF00F0D8F803F0E6FF03B46D
:10020000FFF7F2FF03BC00F097FC000070B5044656
:10021000152C6ED2DFE804F00B0F19305A646B6CAA
:100220006E6F707172737475767D7E8CB00006206F
:1002300001F057FFB7E0062001F053FF012001F065
:1002400050FF002001F04DFFADE0062001F049FF16
:10025000774801F0AAFF00207649087007E00020E7
:1002600001F03FFF73480078401C724908707148E4
:1002700000781C28F3D396E0062001F032FF00201E
:100280006D4908700AE06C4909786CA2505C01F075
:1002900028FF69480078401C674908706648007864
:1002A00066A1085C0028EED16348007861490870B7
:1002B00007E0002001F015FF5E480078401C5D4912
:1002C00008705C4800781028F3DB6CE0062001F031
:1002D00008FFFF2001F005FFFF2001F002FF62E0B0
:1002E000062001F0FEFE082001F0FBFE5BE05AE074
:1002F00059E057E057E056E055E054E053E052E053
:1003000051E050E0152001F0ECFE062001F0E9FE7E
:1003100049E048E001F0F7FE40F00800082803D16A
:10032000062001F0DEFE02E0152001F0DAFE3AE0E0
:1003300001F0FDFE4649086001F0F9FE45490860FC
:100340004FF48051444800F0C6FD4148006818B1A0
:100350003F48006800F0E2FA062001F0C2FE3D4886
:10036000006818B13B48006800F012FB4FF4805160
:10037000394800F0AEFD16E001F0F4FE37490860A0
:100380000846006818B9152001F0ABFE09E0062008
:1003900001F0A7FE3148006800F03BFA054601F085
:1003A00004FF00E000BF00BF70BD002400F05AFB56
:1003B0004FF4165000F0CFFB00F05AF94FF4E16013
:1003C00000F08DFB002001F0FAFD4FF42F7000F0DB
:1003D00086FB012001F0F3FD01F0ACFD01F0CAFD48
:1003E00003F04CF800F060F900F091F91C4800F0BF
:1003F00010FA00201B49086018E001F084FE054651
:10040000FFF704FF01F0E2FE1748006884420DD0B8
:1004100015480068C4B2052C04D100201149091DFB
:10042000086003E001200F49091D0860E5E70000AE
:100430003F001D0000000020010000207365727065
:10044000726F672D53544D33322F47440000000024
:100450000400002008000020000C01400C000020D7
:10046000405489009C01224254010020704700BF83
:10047000FEE700BFFEE700BFFEE700BFFEE77047F4
:1004800070477047704700000CB500200190009045
:100490006C48006840F480306A49086000BF6948D1
:1004A000006800F4003000900198401C0190009812
:1004B00018B90198B0F5A06FF1D16248006800F456
:1004C000003010B10120009001E000200090009861
:1004D000012843D15C48006840F010005A49086088
:1004E0000846006820F0030008600846006840F0F5
:1004F0000200086053484068524948600846406816
:1005000048600846406840F480604860084640689B
:1005100020F47C1048600846406840F48810486029
:100520000846006840F08070086000BF45480068D9
:1005300000F000700028F9D04248406820F0030025
:10054000404948600846406840F00200486000BFEB
:100550003C48406800F00C000828F9D10CBD10B5EB
:10056000FFF792FF10BD10B53648006840F001005B
:1005700034490860084640683449084031494860B9
:1005800008460068324908402E490860084600685D
:1005900020F4802008600846406820F4FE0048608F
:1005A0004FF41F008860FFF7DAFF4FF00060294921
:1005B000086010BD10B5002100200022214B5B68AF
:1005C00003F00C0121B1042906D0082928D107E045
:1005D000214B224C236027E0214B204C236023E059
:1005E000184B5B6803F47010164B5B6803F48032A1
:1005F000022303EB904022B91A4B4343174C23606C
:100600000DE0104B5B6803F4003323B1164B4343FA
:10061000124C236003E0124B4343104C236003E071
:100620000D4B0E4C236000BF00BF064B5B68C3F34D
:1006300003130E4CE15C094B1B68CB40074C236055
:1006400010BD000000100240002002400000FFF832
:10065000FFFFF6FE08ED00E000127A001000002017
:10066000001BB70000093D00808D5B0014000020D6
:1006700008B50121102000F03BFE4FF4C070ADF82A
:10068000000010208DF8030003208DF80200694659
:10069000044800F071FB4FF4C071024800F019FCEF
:1006A00008BD00000010014008B50121082000F03D
:1006B0001FFE0121880300F028FE4FF42040ADF812
:1006C000000018208DF8030003208DF80200694611
:1006D000CC4800F051FB4FF48040ADF800000420FE
:1006E0008DF803006946C74800F046FB4FF4805080
:1006F000ADF8000010208DF803006946C14800F0F5
:100700003BFB4FF48051BF4800F0E3FB08BD10B540
:100710000121032000F0DFFDBB4801F0D7FABA4801
:10072000143001F0D3FAB948B9490860B9484860B3
:10073000002088604020C860002008618020486157
:1007400000208861C86108624FF4005048620020B0
:100750008862AE48B0490860B048486010208860A0
:100760004020C86000200861802048610020886126
:10077000C861086248628862A448A9490860A9481B
:100780004860102088604020C860002008614861EF
:100790008861C86108624862886210BD10B59C49D2
:1007A000994801F035FB9C499748143001F030FB23
:1007B00010BD10B59649944801F02AFB984992481B
:1007C000143001F025FB10BD10B5012203218F4824
:1007D0000C3801F05AF901218B4801F044FB01214A
:1007E0008948143001F03FFB00BF4FF4005001F086
:1007F00055FB0028F9D00022032184480C3801F071
:1008000044F9814801F062FA7F48143001F05EFA41
:1008100010BD10B504460020834908804FF4827053
:10082000488000208880C88008814FF4007048818B
:100830000020C8810720088238207C4908807C4835
:100840007C4908604000844205D330207749088005
:100850007948784908607948844205D3282073494B
:1008600008807648734908607548844205D3202083
:100870006E49088072486F4908607248844205D307
:1008800018206A4908806F486A4908606E488442A7
:1008900005D31020654908806B48664908606B489D
:1008A000844205D30820614908806848614908608E
:1008B0006748844205D300205C49088064485D494C
:1008C000086052480C3800F0EDFF5848008856493F
:1008D00088814E480C3801F00BF800214B480C3849
:1008E00001F00AF9012149480C3801F0A6F85148F5
:1008F000006810BD10B50446214644480C3801F08C
:10090000CDF800BF012141480C3801F01AF9002848
:10091000F8D03E480C3801F0C3F810BD70B504465D
:100920004C4800784C490988401AA04211D84948DF
:10093000007849490988401A241A04E001F0E3FBD1
:100940000546FFF7D7FF44480088424909788842A6
:10095000F4D11AE001F0A5FB3E48007840280FDAF8
:100960003C480078241A04E001F0CDFB0546FFF76F
:10097000C1FF3948008837490978884205D0F3E734
:10098000403CFFF70BFFFFF71FFF002CE2D170BDCB
:1009900010B504463148008808B101F069FB09E050
:1009A000FFF707FFFFF710FF40202C49088001F0F8
:1009B0005FFB403C402CF3D21CB300202849086068
:1009C00019E0002111480C3801F068F800BF01213E
:1009D0000E480C3801F0B5F80028F8D00B480C3858
:1009E00001F05EF80B491E4A126888541C480068E2
:1009F000401C1B4908601A480068A042E1D317490F
:100A00000C8010BD000C0140440002400C38004036
:100A10007C010020DA020020A80100201A03002037
:100A2000D401002024000020000200202600002025
:100A3000A24A04002800002044950800882A1100DA
:100A40001055220020AA44004054890080A81201B9
:100A500000512502540000205200002050000020C8
:100A60002C00002010B56FF0040000F0FCFE2E48B2
:100A700000682E49B0FBF1F02D4908700846007857
:100A800000EB4001C1EBC0104FF6FF7101EAC0005E
:100A90002849088010BD0146254A12784A434FF084
:100AA000E0235A6100229A611A46126942F001025B
:100AB0001A6100BF4FF0E022106900F001021AB184
:100AC00000F48032002AF5D04FF0E022126922F0C3
:100AD00001024FF0E0231A6100229A61704701463B
:100AE000144A12884A434FF0E0235A6100229A6167
:100AF0001A46126942F001021A6100BF4FF0E0226B
:100B0000106900F001021AB100F48032002AF5D019
:100B10004FF0E022126922F001024FF0E0231A6147
:100B200000229A61704700001000002000127A0035
:100B30003000002032000020014600BF704700BF97
:100B4000494A128802F04002002AF9D0C2B2464B4C
:100B50001B1D1A80704710B586B00446012144F26F
:100B6000040000F0C5FB4FF40070ADF81400032042
:100B70008DF8160018208DF8170005A93B4800F0E5
:100B8000FBF84FF48060ADF8140004208DF81700D6
:100B900005A9364800F0F0F825208DF80000032064
:100BA0008DF801008DF8020001208DF803006846E1
:100BB00000F00FFE01940020ADF80800ADF80A0027
:100BC000ADF80C00ADF810000C20ADF80E0001A936
:100BD000254800F038FC012240F22551224800F05F
:100BE000CAFC0121204800F0BAFC06B010BD10B5C7
:100BF00040F225511C4800F0A3FD10B31A4800F044
:100C00001FFDC4B21A48008800F40040C8B9184853
:100C1000008800F4804060B10A2C03D00020144901
:100C2000088020E01248008840F400401049088005
:100C300019E00D2C06D10E48008840F480400C4984
:100C4000088010E00A480088C0F30D0009490C54E0
:100C500007480088401C0649088008460088C728C5
:100C600001DD0020088010BD00380140000801406F
:100C70003800002012020020094880470948004738
:100C8000FEE7FEE7FEE7FEE7FEE7FEE7FEE7FEE73C
:100C9000FEE7FEE704480549054A064B7047000099
:100CA000670500083101000890090020900F00201E
:100CB000900B0020900B002010B50446CC488442D5
:100CC00008D10121042000F02DFB0021042000F0B8
:100CD00029FB46E0C748844208D10121082000F0E2
:100CE00021FB0021082000F01DFB3AE0C2488442AD
:100CF00008D10121102000F015FB0021102000F088
:100D000011FB2EE0BD48844208D10121202000F0D3
:100D100009FB0021202000F005FB22E0B8488442B6
:100D200008D10121402000F0FDFA0021402000F010
:100D3000F9FA16E0B348844208D10121802000F07E
:100D4000F1FA0021802000F0EDFA0AE0AE4884427A
:100D500007D10121801500F0E5FA0021A01500F06F
:100D6000E1FA10BD10B50121084600F0DBFA0021C0
:100D7000012000F0D7FA10BD2DE9F0410246002510
:100D80000026002000230024002791F803C00CF067
:100D90000F0591F803C00CF0100CBCF1000F03D04C
:100DA00091F802C04CEA050591F800C0BCF1000FB3
:100DB00031D0146800202BE04FF0010C0CFA00F346
:100DC000B1F800C00CEA03069E4220D183004FF028
:100DD0000F0C0CFA03F7BC4305FA03FC4CEA0404BD
:100DE00091F803C0BCF1280F06D14FF0010C0CFAAA
:100DF00000FCC2F814C00AE091F803C0BCF1480F2F
:100E000005D14FF0010C0CFA00FCC2F810C0401CD8
:100E10000828D1D31460B1F800C0BCF1FF0F34DD55
:100E2000546800202EE000F1080C4FF0010808FA89
:100E30000CF3B1F800C00CEA03069E4221D18300F6
:100E40004FF00F0C0CFA03F7BC4305FA03FC4CEA15
:100E5000040491F803C0BCF1280F05D100F1080C7F
:100E600008FA0CF8C2F8148091F803C0BCF1480FDE
:100E700007D100F1080C4FF0010808FA0CF8C2F88D
:100E80001080401C0828CED35460BDE8F0814FF696
:100E9000FF710180022181700421C17070470246F8
:100EA000002093680B400BB1012000E00020704748
:100EB0000146886880B2704702460020D3680B4024
:100EC0000BB1012000E0002070470146C86880B2E5
:100ED000704701617047416170470AB1016100E0EC
:100EE00041617047C16070474FF480320A438261AC
:100EF0008161826182698269704702460020434BAA
:100F000018684FF68073184040EA021008433F4BC0
:100F1000186070473E49C8617047F0B50A46002323
:100F200000240021002500F00046B6F1004F02D158
:100F3000364EF16901E0354E7168C0F3034583B266
:100F400000F44016B6F5401F08D121F070612F4E15
:100F5000766826F070662D4F7E6012E000F48016F1
:100F6000B6F5801F06D1032606FA05F4A14341F029
:100F7000706106E0460D360103FA06F6B14341F012
:100F8000706122B1460D360103FA06F6314300F0D6
:100F90000046B6F1004F02D11C4EF16101E01B4E3C
:100FA0007160F0BD30B500228B071C0F0F2303FAD0
:100FB00004F2164B08338C1053F824309343134C2F
:100FC00008348D1044F8253023468C1053F8243013
:100FD0008C07240F00FA04F423430C4C08348D10C2
:100FE00044F8253030BD0A49DC3108607047000004
:100FF00000080140000C01400010014000140140B5
:1010000000180140001C0140002001400000014088
:1010100000002042DF48006840F00100DD49086020
:1010200008464068DC490840DA49486008460068DC
:10103000DA490840D74908600846006820F4802053
:1010400008600846406820F4FE0048604FF41F0026
:1010500088607047CF49096821F48031CD4A11601A
:101060001146096821F480211160B0F5803F03D05A
:10107000B0F5802F0ED106E0C649096841F48031F1
:10108000C44A116007E0C349096841F4A021C14A7C
:10109000116000E000BF00BF704710B5014600229C
:1010A000002300204A11012A02D1BA4C236806E02D
:1010B000022A02D1B74C236A01E0B64C636A01F000
:1010C0001F02012494401C400CB1012000E00020CC
:1010D00010BD38B5002000900024002500BF31204D
:1010E000FFF7DBFF05460098401C00900098B0F524
:1010F000A06F01D0002DF2D03120FFF7CEFF08B154
:10110000012400E00024204638BD01460020A14A09
:10111000106820F0F80040EAC10010607047A04954
:1011200008607047024600209A4B586820F47C10F3
:1011300042EA01031843974B586070479849086684
:10114000704701460020934A506820F0030008438E
:10115000506070478F48406800F00C0070470146AF
:1011600000208C4A506820F0F0000843506070471F
:1011700001460020874A506820F4E0600843506030
:10118000704701460020834A506820F4605040EACE
:10119000C1005060704729B17E4A527A02437D4BAC
:1011A0005A7204E07B4A527A82437A4B5A727047F1
:1011B0007B49D8310860704701460020754A506865
:1011C00020F440400843506070470021714A2032AB
:1011D0001170704A82F82010012802D004280AD128
:1011E00004E001216B4A2032117005E00521694AB3
:1011F0002032117000E000BF00BF704769490860ED
:1012000070476449096A0143624A1162704765493F
:1012100044390860704730B50021002200240023C3
:101220005C4D6D6805F00C0121B1042905D0082939
:1012300023D105E05C4D056022E05C4D05601FE0B8
:10124000544D6D6805F47012524D6D6805F480348C
:10125000022505EB92421CB9554D554305600BE044
:101260004C4D6D6805F400351DB1524D5543056078
:1012700002E04E4D5543056002E04B4D056000BF56
:1012800000BF444D6D6805F0F00109094A4D6B5CE3
:101290000568DD4045603F4D6D6805F4E061090A71
:1012A000454D6B5C4568DD4085603A4D6D6805F4E1
:1012B0006051C90A404D6B5C4568DD40C560354DE5
:1012C0006D6805F44041890B3C4D6B5CC568B5FB0E
:1012D000F3F5056130BD29B12E4A526902432D4B09
:1012E0005A6104E02B4A526982432A4B5A61704783
:1012F00029B1284A92690243264B9A6104E0254AA3
:1013000092698243234B9A61704729B1214AD2697D
:101310000243204BDA6104E01E4AD26982431D4B2E
:10132000DA61704729B11B4AD2680243194BDA606F
:1013300004E0184AD2688243164BDA60704729B13C
:10134000144A12690243134B1A6104E0114A1269EC
:101350008243104B1A617047124940390860704748
:101360000F49C86470470B49C87170470948406A03
:1013700040F0807007494862704701460020054AE6
:1013800092680A400AB1012000E00020704701493C
:1013900088727047001002400000FFF8FFFFF6FE61
:1013A000000042428004424200127A00001BB70053
:1013B00000093D00808D5B003A0000204A000020BB
:1013C00010B50446FB48844209D101218803FFF788
:1013D000A9FF00214FF48040FFF7A4FF32E0F64858
:1013E000844209D101214804FFF7A9FF00214FF4ED
:1013F0000030FFF7A4FF25E0F048844209D1012125
:101400008804FFF79CFF00214FF48020FFF797FF2F
:1014100018E0EB48844209D10121C804FFF78FFF8F
:1014200000214FF40020FFF78AFF0BE0E5488442DB
:1014300008D101210805FFF782FF00214FF4801039
:10144000FFF77DFF10BD2DE9F04786B005460E463B
:101450000024A24600BFA1460027B08900B100BF0A
:101460002F462C8A4CF6FF700440F08804432C82EF
:10147000AC894EF6F3100440B08831890843718975
:1014800008430443AC81AC8A4FF6FF400440B08966
:101490000443AC8201A8FFF7BEFEC648874202D1D2
:1014A000DDF810A001E0DDF80CA0A88900F40040F0
:1014B00040B10AEBCA0000EB0A1031684900B0FBEA
:1014C000F1F807E00AEBCA0000EB0A103168890066
:1014D000B0FBF1F86420B8FBF0F0040120096421AE
:1014E00001FB1089A88900F4004040B1322000EBD4
:1014F000C900B0FBF1F000F00700044308E032201F
:1015000000EB09106421B0FBF1F000F00F00044380
:101510002C8106B0BDE8F0874FF416510160002120
:101520008180C18001810C2141810021818170472E
:1015300010B502460020108A4FF2FF0318400B88B6
:101540004C8823438C882343CC8823431843108240
:1015500010BD0021018041808180C180704721B190
:10156000828942F40052828104E082894DF6FF7341
:101570001A4082817047F0B50346002400260025FA
:10158000002040F66A17B94200D100BF1846C1F3E7
:10159000421401F01F06012707FA06F5012C01D1BC
:1015A0000C3004E0022C01D1103000E014301AB1EC
:1015B00007682F43076002E00768AF430760F0BD8C
:1015C0001AB1838A0B43838202E0838A8B4383822E
:1015D0007047028A4FF6F0731A400282028A0A4369
:1015E0000282704782894FF2FF731A40828182899A
:1015F0000A438281704721B1828942F002028281CE
:1016000004E082894FF6FD731A4082817047028A96
:101610004FF6DF731A400282028A0A430282704741
:1016200021B1028A42F48042028204E0028A4BF62F
:10163000FF731A4002827047C1F30802828070472C
:1016400001468888C0F308007047818941F0010194
:1016500081817047028BD2B20283028B42EA01225F
:1016600002837047028B02F47F420283028B0A439B
:101670000283704721B1828A42F02002828204E014
:10168000828A4FF6DF731A408282704721B1828AC4
:1016900042F01002828204E0828A4FF6EF731A4011
:1016A0008282704721B1828A42F00802828204E07D
:1016B000828A4FF6F7731A408282704721B182897D
:1016C00042F40042828103E08289C2F30E028281E9
:1016D000704721B1828A42F40062828204E0828AE9
:1016E0004FF2FF731A4082827047828A4FF6FB7373
:1016F0001A408282828A0A438282704721B1828A9A
:1017000042F00202828204E0828A4FF6FD731A40A0
:101710008282704702460020B1F5007F00D100BFF1
:1017200013880B400BB1012000E00020704701F44A
:101730000072B2F5007F00D100BFCA43028070473B
:1017400070B50246002400230025002040F66A16EA
:10175000B14200D100BFC1F3421501F01F030126C1
:1017600006FA03F3012D02D19689334006E0022DDB
:1017700002D1168A334001E0968A33400C120126CA
:1017800006FA04F41688344013B10CB1012000E0CD
:10179000002070BD10B50022002340F66A14A1425B
:1017A00000D100BF0A1201249440A3B2DC4304809C
:1017B00010BD0000003801400044004000480040D7
:1017C000004C00400050004031490143314A116053
:1017D000704770B5002100230F22C47804B32D4C4C
:1017E000246804F4E064C4F5E064210AC1F1040350
:1017F000CA40447804FA03F1847814402143090173
:10180000254C0678A155047804F01F050124AC404E
:1018100005786D11AD0005F1E025C5F8004109E03E
:10182000047804F01F050124AC401C4D06787611A5
:1018300045F8264070BD1A4A0A400243154B1B1F4B
:101840001A60704739B1134A121D12680243114BD6
:101850001B1D1A6006E00F4A121D126882430D4BD1
:101860001B1D1A607047042808D14FF0E021096958
:1018700041F004014FF0E022116107E04FF0E02158
:10188000096921F004014FF0E02211617047000066
:101890000000FA050CED00E000E400E080E100E06B
:1018A00080FFFF1F10B50446BE48844208D10121C5
:1018B0008014FFF737FD0021A014FFF733FD16E079
:1018C000B948844208D101210014FFF738FD0021F6
:1018D0002014FFF734FD0AE0B448844207D1012107
:1018E000C013FFF72CFD0021E013FFF728FD10BD0A
:1018F00010B50022028802F441520B884C88234321
:101900008C882343CC8823430C8923434C8923436D
:101910008C892343CC8923431A430280838B4FF263
:10192000FF74234083830B8A038210BD2DE9F04F9F
:1019300085B005460C464FF0000902274FF000081D
:101940004FF0010B0026B246A88B4FF24001084031
:10195000A88302202884B5F81C90A068022801D131
:1019600000BF38E0A08810B94FF0010B01E04FF044
:10197000020B8D48854200D100E000BF6846FFF7AA
:101980004AFCDDF800A0E088B0F5007F0AD14FEAFC
:101990001A2000EB80004000A168B0FBF1F0401D70
:1019A00086B20BE04FEA4B10BAFBF0F000EB800080
:1019B0004000A168B0FBF1F0401D86B20A20B6FBE2
:1019C000F0F606F00108A6EB0800C0F34F074FF64B
:1019D000FF7000EA0828022F01DBFF2F02DD02273B
:1019E0004FF00008E08840EA080038432884A088C7
:1019F000A1890843618808432188084340F40060B6
:101A000040EA0909A5F81C9005B0BDE8F08F002157
:101A1000018041808180C180018141818181C181BA
:101A20000721018270470021018041808180C180AF
:101A30000221816000218181704721B1028842F03A
:101A40004002028004E002884FF6BF731A40028011
:101A5000704721B1828B42F48062828304E0828BE2
:101A60004FF6FF331A408283704730B500240023BD
:101A70000C110125A540ABB21AB185881D438580A4
:101A800002E085889D43858030BD1AB183880B4371
:101A9000838002E083888B43838070478181704715
:101AA0000146888970474FF6FF62914204D0028850
:101AB00042F48072028004E002884FF6FF631A400D
:101AC0000280704721B1828842F00402828004E0E3
:101AD00082884FF6FB731A408280704702884FF26B
:101AE000FF731A40028002880A430280704701880F
:101AF00041F480510180704721B1028842F40052C4
:101B0000028004E002884DF6FF731A40028070479D
:101B100002460020012901D0108B00E0908A704716
:101B20000146088A7047B1F5804F04D1028842F41B
:101B30008042028004E002884BF6FF731A40028064
:101B400070470246002013890B400BB1012000E0D2
:101B500000207047CA4302817047F0B5024600205A
:101B600000240023002501F00F070126BE40B4B277
:101B70000B1101269E40B3B2968806EA030516892A
:101B8000264016B10DB1012000E00020F0BD10B5D7
:101B9000002201F00F040123A3409AB2D343038132
:101BA00010BD00000030014000380040003C004003
:101BB000002044490860091D0860091D0860091DCE
:101BC000086041483F4914310860704700213D4991
:101BD0008279002A3AD00A46126803689A430B4673
:101BE0001A600A1D126803689A430B1D1A60027975
:101BF00011440A6803681A430A60324A08321268BC
:101C000003689A432F4B08331A601A1D1268036841
:101C10009A432C4B0C331A604279102A0ED11A1FAA
:101C2000126803681A43274B08331A601A1D12689A
:101C300003681A43234B0C331A600DE021494279A3
:101C400011440A6803681A430A6005E002791144E6
:101C50000A6803689A430A607047002101600171B5
:101C60000C214171002181717047164910310968BA
:101C70000143144A10321160704701460020114A96
:101C8000143212680A400AB1012000E000207047B7
:101C90000C49143108607047014600200022094BAE
:101CA0001B6803EA0102074B14331B680B4013B196
:101CB0000AB1012000E00020704702491431086099
:101CC0007047000000040140FFFF0F0001684FF65D
:101CD000FE72114001600021016041608160C160BD
:101CE0008D49884208D18C490839496841F00F0173
:101CF000894A083A51608AE087491431884208D1FC
:101D000085490839496841F0F001834A083A516031
:101D10007DE081492831884208D17F4908394968E6
:101D200041F470617C4A083A516070E07A493C3174
:101D3000884208D178490839496841F47041764AA7
:101D4000083A516063E074495031884208D17249C1
:101D50000839496841F470216F4A083A516056E0E9
:101D60006D496431884208D16B490839496841F4AA
:101D70007001694A083A516049E067497831884200
:101D800008D165490839496841F07061624A083AEA
:101D900051603CE06149884206D1011F096841F069
:101DA0000F01021F116032E05C491431884208D1F2
:101DB0005A49091F096841F0F001584A121F116081
:101DC00025E056492831884208D15449091F09683D
:101DD00041F47061514A121F116018E04F493C31C3
:101DE000884208D14D49091F096841F470414B4AA6
:101DF000121F11600BE049495031884207D1474911
:101E0000091F096841F47021444A121F116070478C
:101E100010B50022026847F6F0739A430C6A8B688B
:101E200023430C6923434C6923438C692343CC69C6
:101E300023434C6A23438C6A23431A430260CB68D2
:101E400043600B6883604B68C36010BD0021016074
:101E500041608160C160016141618161C161016274
:101E600041628162704721B1026842F00102026062
:101E700004E002684FF6FE731A40026070471AB120
:101E800003680B43036002E003688B430360704701
:101E9000416070470146486880B2704701460020A3
:101EA000002201F080531BB11C4B083B1A6802E072
:101EB000194B083B1A6802EA01030BB1012000E04C
:101EC0000020704700F0805119B11449091F0860C3
:101ED00002E011490839486070470146002000229D
:101EE00001F080531BB10D4B083B1A6802E00A4B0E
:101EF000083B1A6802EA01030BB1012000E0002050
:101F0000704700F0805119B10449091F086002E0D0
:101F1000014908394860704708000240080402403F
:101F200010B54FF48020FFF7C8FE10BD10B500F0CB
:101F300001FA10BD10B50020FFF73AF90121C805DC
:101F4000FFF7E3F910BD10B5A4A002F0C7F8032015
:101F5000A949086010BD10B5A84CA9A002F0BEF8B0
:101F6000A07A18B10520A449086002E00120A24926
:101F7000086010BD08B514208DF8000001208DF810
:101F8000010000208DF8020001208DF80300684652
:101F9000FFF71FFC2A208DF8000000208DF80100BB
:101FA0006846FFF716FC08BD10B504461CB19AA0A0
:101FB00002F094F802E09EA002F090F810BD10B577
:101FC000044601210420FFF793F93CB19E480068C4
:101FD00080B220F002009C49086014E09A48006832
:101FE00080B240F00200984908609848006820F4E8
:101FF0007F20964908600846006840F44C3008602D
:1020000000209349086010BD30B50B46002100BF89
:1020100016E00A24B4EB107F05D9302404EB1074C9
:1020200003F8114005E0412404EB10740A3C03F866
:102030001140000100254C00641C1D554C1CE1B2F0
:102040009142E6DB30BD70B582480468001D05682A
:10205000001D0668344454B108227F492046FFF72A
:10206000D3FF04227C4910312846FFF7CDFF70BD15
:1020700010B500BF012001F093FC2028FAD1774869
:102080000288C021764801F0B5FB74480188012020
:1020900001F011FE012001F095FC00206F4908803D
:1020A00010BD10B500BF032001F083FCB0F5005F48
:1020B000F9D1032001F050FE6A4908700846007803
:1020C000402801DD4020087040224FF488716648A6
:1020D00001F0AAFB032001F08DFC00206349088079
:1020E00010BD10B504465E485C49098844545B48FD
:1020F0000088401C5949088008460088402801D1C2
:10210000FFF7B6FF10BD10B558480088554909784B
:10211000884201D1FFF7C5FF54480088401C53494D
:10212000088008460088401E4F49085C10BD10B565
:1021300000204F490860FFF7E6FF4D490860FFF7B0
:10214000E2FF4B49096841EA002049490860FFF76E
:10215000DAFF4749096841EA0040454908600846F6
:10216000006810BD10B5002041490860FFF7CBFFA3
:102170003F490860FFF7C7FF3D49096841EA002071
:102180003B490860FFF7BFFF3949096841EA004051
:1021900037490860FFF7B7FF3549096841EA006031
:1021A000334908600846006810BD10B50446E0B227
:1021B000FFF797FFC4F30720FFF793FFC4F307402F
:1021C000FFF78FFF200EFFF78CFF10BD10B52348DF
:1021D000008808B1FFF74CFF10BD00007573622046
:1021E000656E746572206C6F7720706F77657220F2
:1021F0006D6F64650D0A0000540100201009002075
:102200006C65617665206C6F7720706F77657220E2
:102210006D6F64650D0A00007573622070756C6CDB
:1022200020757020656E61626C650D0A000000000B
:102230007573622070756C6C2075702064697361B1
:10224000626C650D0A000000405C0040040801401B
:10225000B0012142E8F7FF1F60000020500000207D
:10226000DA020020540000201A030020520000204F
:102270005800002070B52C48B0F802042A49B1F883
:102280000014884200D170BD2748B0F802042649E6
:10229000B1F80014884208DA2348B0F80004224953
:1022A000B1F80214401A84B205E01F48B0F80204E5
:1022B000C0F5806084B2402C00DD40241A48B0F89C
:1022C0000254B0F8020420441749A1F80204084659
:1022D000B0F80204B0F5806F02DB0020A1F8020420
:1022E000114948192246C02101F084FA21460120F3
:1022F00001F0E1FC012001F065FB00BFC3E770477E
:1023000010B50A48006805280CD109480168006822
:10231000401C074A1060052904D1002011460860BE
:10232000FFF7A8FF10BD00005A0300205401002051
:102330007800002010B588B0002469480068694919
:1023400008800846008800F4007067490988084042
:1023500050B14FF6FF506249086064480078401C55
:1023600062490870FFF7CCFF5E48008800F4004027
:102370005D490988084008B101F09EF85948008875
:1023800000F4806058490988084030B14FF6FF30AA
:10239000534908605649486880475248008800F40D
:1023A000005051490988084018B14DF6FF704C495A
:1023B00008604C48008800F480504B490988084068
:1023C00030B14EF6FF7046490860002000F041FA37
:1023D0004448008800F4006043490988084060B11F
:1023E0004448007810B100F0DEF902E0022000F06D
:1023F00030FA4FF2FF703A4908603A48008800F41A
:102400008070394909880840002866D04FF6FF607F
:1024100033490860081D006800F40040002856D0C9
:1024200035480068401C34490860084600680328A5
:1024300050D92B48001F006800F00800002849D13F
:102440002748001F006880B22C490860002408E07B
:102450002B4901EB8400D0F8000C80B24DF8240029
:10246000641C082CF4D32548006840F0010023497F
:1024700008600846006880B21949091F08601F48B3
:10248000006820F001001D4908600846006880B21D
:102490001349091F086000BF1148006800F48060FC
:1024A0000028F9D04FF6FF300D490860002408E0FD
:1024B0005DF8240080B2124A02EB8401C1F8000CDE
:1024C000641C082CF4D300200B49086002E00020B3
:1024D00009490860072000F0BCF908B010BD0000F1
:1024E000445C00407C000020720100207E0000203F
:1024F000D00000205801002080000020840000202F
:102500000050004010B5FFF79EFD00208549096886
:10251000887200F01FF901F09FFD002082490860D9
:1025200010BD10B500207F49096888727F48C079C6
:102530007C490968487200207A490968C87201F02C
:10254000A5F94FF40071002001F0BAF91021002024
:1025500001F0CFF94021002001F089FB802100200B
:1025600001F079FB002001F081FA714890F82C10FD
:10257000002001F0C2FB002001F03CFA0021012004
:1025800001F09EF9C021012001F065FB202101200E
:1025900001F0AFF90021012001F0C9F94FF4C06149
:1025A000022001F08DF94FF48071022001F053FBFD
:1025B0000021022001F0BBF92021022001F099F94D
:1025C0000021032001F07CF94FF48871032001F011
:1025D0004EFB4021032001F090FB4FF440510320BB
:1025E00001F0A5F90021032001F083F9002000F09B
:1025F000B6FE01204C49086010BD4E48817A11B1E9
:102600000521494A11607047042047490860704716
:1026100049480078202809D100204849A1F802043F
:10262000A1F8000446490880434908707047704784
:10263000014629B908203B4A1268108200207047E1
:102640004048FCE7014629B90820364A1268108242
:10265000002070473B48FCE770B504460025212C5C
:1026600009D130480068007800F07F00212810D19F
:10267000AFF22F050DE0202C0BD12A48006800781E
:1026800000F07F00212801D1AFF25B0520202A490C
:1026900008700DB9022070BD2248006885610021D4
:1026A0002048006841820020A8470020F3E7014647
:1026B0001C480068007800F07F00212807D102291B
:1026C00001D100207047222901D10020FAE7022021
:1026D000F8E710B504461C49204600F036FB10BD53
:1026E00010B504461949204600F02FFB10BD70B507
:1026F00005460C480068C478042C01DD002070BD3C
:10270000134800EBC401284600F01FFBF7E7024620
:10271000002901DD02207047012A01DD0220FAE7CD
:102720000020F8E76801002054010020F241000871
:10273000D000002010090020C00000205A03002013
:102740005C000020C4000020240100202C01002097
:102750003401002010B50120FFF726FC01246D484C
:10276000046000206C4908800846008869490860B8
:102770000020091D08604FF4E050674908800846B2
:10278000008864490860002010BD10B5012061492F
:1027900008600020091D0860FFF706FC03205D4962
:1027A0000860002010BD38B5002500200090594871
:1027B000006884B200BF09E0584901EB8500D0F8F9
:1027C000000C80B2564941F825006D1C082DF3D34A
:1027D00044F480644F48046044F00104046024F031
:1027E0000104046000BF4B48001D006800F48060D5
:1027F0000028F8D04FF6FF304649091D0860002533
:1028000009E0474850F8250080B2444A02EB8501B0
:10281000C1F8000C6D1C082DF3D344F008043D48AA
:102820000460006884B244F004043A480460FFF78E
:102830008AFB38BD10B53748006884B224F0040420
:1028400034480460FFF787FB4FF43F40314908608C
:1028500010BD70B50546072D01D0324805703148CE
:10286000007808284ED2DFE800F004111A202B3837
:102870004E4F2D48006828B9FFF7DCFF0620294994
:10288000087002E005202749087041E0FFF7D2FFF9
:1028900004202449087001202349086038E0022000
:1028A000204948700320087032E01E484078401EDE
:1028B0001C4948700846407808B90420087027E091
:1028C0001448006884B244F01004124804600520E3
:1028D000144908700A2048701AE012484078401ED7
:1028E000104948700846407858B90A48006884B2D0
:1028F00024F01004074804600620087000200A49EC
:10290000086005E000BF00BF06200649087000BF50
:1029100000BF70BD405C00407201002000500040CC
:10292000F0080020590100205C01002010B5044689
:102930002CB90120F64909680882002010BDF5492C
:10294000096808688047F24800680A30F6E710B561
:10295000EF480068C078F0494978884213DCEC48B9
:102960000068807878B9EA480068808858B9E848F3
:102970000068C078E64909688872E64909684868CD
:102980008047002010BD0220FCE710B504462CB99A
:102990000120DF4909680882002010BDDD4909686F
:1029A00088688047DA4800680C30F6E710B5D84BE5
:1029B0001B68D978D64B1B685879D84B1B689A6925
:1029C00090470446D2480068807AE8B13CB9D048C4
:1029D0000068007918B9CE480068807808B10220F4
:1029E00010BD8CB9CB490968C8688047C8480068E1
:1029F0004079C7490968C872C5480068C078C449A9
:102A0000096808730020EBE70220E9E710B50446E7
:102A10002CB90220BE4909680882002010BD0020A0
:102A2000BF490880BA480068007800F07F0018BBF2
:102A3000B7490968487A00F0200131B1B8490978EE
:102A400041F00201B64A117005E0B549097801F07C
:102A5000FD01B34A117000F0400131B1B04909786D
:102A600041F00101AE4A117005E0AD49097801F06D
:102A7000FE01AB4A11703AE0A5480068007800F00A
:102A80007F00012801D1A648C8E7A1480068007866
:102A900000F07F00022828D19D4A1268517901F088
:102AA0000F0001F080027AB19E4B03EB8002D2F856
:102AB000002C02F03002102A16D1994A127842F006
:102AC0000102974B1A700FE0964B03EB8002D2F88D
:102AD000002C02F44052B2F5805F05D1904A127882
:102AE00042F001028E4B1A7001E0002096E78949FE
:102AF0000968086980478A4890E72DE9F0478448CB
:102B00000068007800F07F08B8F1000F0AD1804813
:102B10000068407A00F0DF007D49096848720020B3
:102B2000BDE8F087B8F1020F7ED17948006840888F
:102B300018B977480068007908B10220F0E7DFF89B
:102B4000D89173480068477927F080052C46704873
:102B50000068407900F0800038B1724901EB8400D0
:102B6000D0F8000C00F0300606E06E4901EB84005E
:102B7000D0F8000C00F4405699F80000A84204D99F
:102B80001EB163480068807A08B90220C8E707F0E0
:102B9000800080B1634901EB8400D0F8000C00F0A4
:102BA000300010284BD1E0B201F01DF8E0B2302126
:102BB00000F09FFE43E05B4901EB8400D0F8000C7D
:102BC00000F44050B0F5805F39D1E4B9564A92F82C
:102BD0002C10E0B201F091F8524A02EB8401D1F8D6
:102BE000001C4BF68F7201EA020080F4805080F4E2
:102BF000005040F4004141F080014A4B03EB840255
:102C0000C2F8001C1BE0E0B200F0D5FF454A02EB21
:102C10008401D1F8001C4BF68F7201EA020080F4A7
:102C2000805080F4005000E00FE040F4004141F09B
:102C300080013C4B03EB8402C2F8001C00BF354905
:102C400009684869804700206AE700BF022067E7FB
:102C50002DE9F0412E480068467926F080073C4671
:102C60002B480068407900F0800038B12D4901EB15
:102C70008400D0F8000C00F0300506E0294901EB93
:102C80008400D0F8000C00F4405523480078A0429E
:102C900008D91F480068408820B91DB11C48006849
:102CA000807A10B90220BDE8F08106F08000A0B162
:102CB0001C4A02EB8401D1F8001C48F6BF7201EAFD
:102CC000020080F0100040F4004141F08001154BFB
:102CD00003EB8402C2F8001C14E0124A02EB8401E8
:102CE000D1F8001C4BF68F7201EA020080F480508C
:102CF00040F4004141F080010A4B03EB8402C2F82A
:102D0000001C00BF03490968886980470020CAE7A2
:102D10006801002074010020CC0000206C0100201C
:102D20006001002000500040D000002010B5F7489E
:102D30000068407A40F02000F44909684872F4497C
:102D40000968C8698047002010BD10B50246EF48E9
:102D50000068438A32B98888C01AEC4C2468208203
:102D6000002010BD08681844FBE72DE9F041E74852
:102D7000006800F110042688A068C0B1BEB1A58823
:102D8000B54200D93546A8B2A168884707462088D1
:102D9000401B2080608828446080002000F07FFF76
:102DA0008046AAB24146384600F03EFD00BF20886A
:102DB00050B14FF44050D74908800021084600F038
:102DC0007AFF3020D44908802088A188884204DB1B
:102DD0000320CE490968087218E02088002804DD25
:102DE0000520CA490968087210E0208870B90620D9
:102DF000C649096808720021C848006880B2801C72
:102E0000C74A42F810103020C3490880BDE8F0815D
:102E10002DE9F047BD48006800F110052E88BB4839
:102E20000068077AD6B9042F18D1BE480078012867
:102E30000FD10021B948006880B2801CB84A42F81E
:102E400010103020B449088000BF0020B549087038
:102E500003E007271020B049088027E0AC88A6428D
:102E600001D8042000E002200746B44200D93446CD
:102E7000A0B2A96888478046002000F005FF81467F
:102E8000A2B24946404600F0B5FCA1B2002000F0D5
:102E900012FF2888001B2880688820446880302022
:102EA0009D49088000029B49088000BF9749096836
:102EB0000F72BDE8F08770B5022694480068447828
:102EC00092480068007800F07F00002844D1092C67
:102ED00003D1FFF73CFD06465FE0052C14D18B487B
:102EE0000068C0787F280BDC88480068807838B993
:102EF00086480068808818B984480068807A08B1DC
:102F0000082565E0002648E0032C0ED17F480068C4
:102F1000C078012807D17D480068808818B9FFF77C
:102F200005FF064639E0022637E0012C35D1774807
:102F30000068C07801280DD174480068808848B9BD
:102F400072480068407A00F0200018B1FFF7D5FD04
:102F5000064622E0022620E06C480068007800F077
:102F60007F00012805D10B2C17D1FFF71FFD064666
:102F700013E066480068007800F07F0002280BD15B
:102F8000012C03D1FFF7B9FD064606E0032C04D15E
:102F9000FFF75EFE064600E002264EB1E0B2624A4E
:102FA0001268516988470646032E01D109250FE0B2
:102FB0000EB108250CE0062500215848006880B2B3
:102FC000801C574A42F8101030205349088000BF37
:102FD0004E4909680D7270BD2DE9F84F4B480068E5
:102FE00045780027BA46062D1BD14848006800786E
:102FF00000F07F00002813D144490968887801282F
:1030000003D149490968CF690AE0022803D146493A
:1030100009680F6A04E0032802D1434909684F6A2E
:10302000ADE0002D67D1394800684088002862D1A2
:1030300036480068C08802285DD1344800680079AD
:10304000002858D131480068007800F07F0030B97E
:103050002E480068808810B9AFF24F678FE02B4888
:103060000068007800F07F00012811D12749096825
:1030700048792D4909688A690021904700287ED146
:1030800022480068807A002879D0AFF27F6776E026
:103090001E480068007800F07F0002286FD11B48AE
:1030A0000068407900F00F0618480068407900F089
:1030B000700916480068407900F0800038B11B495B
:1030C00001EB8600D0F8000C00F0300806E017494C
:1030D00001EB8600D0F8000C00F44058144800784A
:1030E000B0424CD9B9F1000F49D1B8F1000F46D028
:1030F000AFF2E76743E0082D1CD104480068007870
:1031000000F07F00D8BBAFF2DB7738E06801002029
:1031100074010020780100207A010020505C0040FA
:1031200000600040620100206C010020005000405F
:10313000CC0000200A2D22D1C5480068007800F09C
:103140007F0001281BD1C2480068807AB8B1C0480E
:103150000068408898B9BE480068007978B9BC48D2
:103160000068C08801280AD1B94909684879B94975
:1031700009688A690021904708B9AFF2F17757B121
:10318000B3480068A0F812A0B14800688761002029
:10319000B84700240FE0AE4A12685078AD4A126872
:1031A000116988470446032C05D10920A8490968FC
:1031B0000872BDE8F88FA6480068008A4FF6FF71D4
:1031C000884204D10920A24909680872F1E7022C5B
:1031D00003D09F480068008A20B908209C490968EC
:1031E0000872E6E79A480068007800F08000E0B3D3
:1031F00097480068C088009095480068008A009948
:10320000884204D9924900980968088223E09048CE
:103210000068008A8E490968C98888421BDA8C4890
:103220000068008A8B49096891F82C10884203DAFB
:103230000020894908700EE085480068008A8549A9
:10324000096891F82C1090FBF1F201FB120010B903
:103250000120814908707F48006890F82C107C4854
:1032600000688182FFF7D4FD07E0FFE7032078497B
:103270000968087200037949088000BF99E710B512
:10328000774890F82C10002000F037FD7048006857
:10329000007A082805D14002704908801020714941
:1032A00008806B480068007A092801D1012010BD10
:1032B0000020FCE738B501246B48006880B2001D8F
:1032C0006A4931F8100080B201EB4000009060487C
:1032D0000068007A092832D0009800785C490968B3
:1032E00008700098401C00900098007858490968C0
:1032F00048700098401C0090009800EB440000903B
:10330000009931F8020B009100F0A0FE50490968C5
:103310004880009800EB44000090009931F8020BBF
:10332000009100F093FE4A4909688880009800EBFC
:10333000440000900098008845490968C880012031
:1033400043490968087242480068C08810B9FFF70D
:10335000B2FD01E0FFF740FEFFF791FF38BD30B549
:103360000146434B1A78002014E00306414C04EB5D
:103370009353D3F8003C48F68F74234048F28004FE
:103380002343C4B2234304063A4D05EB9454C4F8D6
:10339000003C401C9042E8D341F08003324C241F93
:1033A000236030BD10B52A480068047A022C01D091
:1033B000042C05D1FFF72CFD25480068047A1CE099
:1033C000062C19D122480068407805280ED12048E3
:1033D0000068007800F07F0040B91D490968C8788E
:1033E000FFF7BDFF24490968086A80471949096841
:1033F00088688047082400E00824154909680C7291
:10340000FFF73DFF10BD10B511480068047A022C8B
:1034100001D0042C01D1082412E0032C01D0052C8A
:1034200005D1FFF7A2FC0A480068047A08E0072CDF
:1034300005D108490968C8688047082400E00824C5
:10344000034909680C72FFF71AFF10BD70470000AE
:10345000680100206C01002062010020780100203A
:10346000D00000207A010020505C00400060004045
:10347000CC000020005000407401002010B5084826
:10348000084908600220096808720748074908606F
:10349000074808490860054909680868804710BD61
:1034A0001009002068010020D00000206C010020DD
:1034B000000100207401002008B50020009022E1E6
:1034C000C448008800F00F00C3490870084600781F
:1034D00000287CD1C1480068C1490880084600889E
:1034E00000F03000BF490880BD48008800F440501B
:1034F000BB490880B94909684BF6BF7201EA02006E
:1035000080F4005080F0200040F4004141F0800140
:10351000B24A1160AF48008800F0100090BB10461E
:10352000006848F60F71084011460860FFF73AFF3F
:10353000AA4909684BF6BF7201EA0200A849098846
:1035400001F4805109B180F48050A549098801F443
:10355000005109B180F40050A249098801F010011E
:1035600009B180F010009F49098801F0200109B1DC
:1035700080F0200081B241F4004141F08001974A7F
:10358000116008BDFFE79548006880B20090BDF863
:10359000000000F40060B0B390480068C0F30E0073
:1035A00048F68F7108408D490860FFF783FE8B490C
:1035B00009684BF6BF7201EA02008949098801F4E3
:1035C000805109B180F480508549098800E056E0B7
:1035D00001F4005109B180F400508249098801F0DA
:1035E000100109B180F010007E49098801F0200126
:1035F00009B180F0200081B241F4004141F0800126
:10360000764A1160BDE7FFE7BDF8000000F4004016
:10361000002878D071480068C0F30E0048F68F711A
:1036200008406E490860FFF7EEFE6C4909684BF6EA
:10363000BF7201EA02006A49098801F4805109B1A8
:1036400080F480506649098801F4005109B180F482
:1036500000506449098801F0100109B180F01000A0
:103660006049098801F0200109B180F0200081B291
:1036700041F4004141F08001584A116081E7564809
:103680000078594901EB8000D0F8000C80B200901E
:10369000BDF8000000F40040C0B14F48007801EBD5
:1036A0008000D0F8000CC0F30E0048F68F7108407F
:1036B000494909784C4A02EB8101C1F8000C46499E
:1036C0000978491E494A52F821008047BDF8000098
:1036D00000F08000B8B140480078434901EB800019
:1036E000D0F8000C48F60F7108403B4909783E4A73
:1036F00002EB8101C1F8000C37490978491E3C4AA8
:1037000052F82100804735484430006880B2314982
:10371000088000F4004000287FF4D2AE00BF30E7FC
:1037200010B500244AE047F6FF702C494431086088
:103730002848008800F00F002749087008460078E4
:10374000294901EB8000D0F8000C84B204F4004059
:10375000C8B12148007801EB8000D0F8000CC0F31C
:103760000E0048F68F7108401B4909781E4A02EB8B
:103770008101C1F8000C18490978491E1B4A52F80A
:10378000210080471AE004F08000B8B112480078A8
:10379000154901EB8000D0F8000C48F60F71084085
:1037A0000D490978104A02EB8101C1F8000C0A4961
:1037B0000978491E0E4A52F82100804707484430D4
:1037C000006880B20349088000F400400028AAD1B4
:1037D00010BD00007C00002064010020005C00405F
:1037E000780100207A01002000500040A400002051
:1037F00088000020F0B5144604F1010C4FEA6C0774
:10380000DFF848C00CEB41033D460AE00678401C57
:1038100090F800C046EA0C2223F8022B9B1C401CA7
:103820006D1E002DF2D1F0BDF0B5561C7510074E7F
:1038300006EB41042B4605E034F8047B20F8017BBD
:10384000401C5B1E002BF7D1F0BD00000060004063
:10385000FA4908607047F948006880B27047F74934
:10386000091D08607047F548001D006880B2704768
:10387000F2480830006880B27047F0490C310860A7
:103880007047EE480C30006880B270474FF6F87110
:103890000140EA4A103211607047E8481030006871
:1038A00080B27047E64B03EB8002C2F8001C704701
:1038B0000146E34A02EB8100D0F8000C80B2704769
:1038C00010B5DF4B03EB8002D2F8002C48F68F13C3
:1038D0001A400A43DA4C04EB8003C3F8002C10BDF5
:1038E0000146D74A02EB8100D0F8000C00F4C0601A
:1038F000704730B5D24C04EB8003D3F8003C48F657
:10390000BF7403EA040201F010030BB182F010024D
:1039100001F020030BB182F0200242F4004343F097
:103920008003C74D05EB8004C4F8003C30BD30B5C2
:10393000C34C04EB8003D3F8003C4BF68F7403EACE
:10394000040201F480530BB182F4805201F400535D
:103950000BB182F4005242F4004343F08003B84DAF
:1039600005EB8004C4F8003C30BD30B503460C467E
:103970001846FFF79DFF0546012C07D125F480501E
:10398000AF4A02EB8301C1F8000C08E0022C06D11B
:1039900025F01000AA4A02EB8301C1F8000C30BDEB
:1039A0000146A74A02EB8100D0F8000C00F030007D
:1039B00070470146A24A02EB8100D0F8000C00F4E7
:1039C0004050704710B59E4B03EB8002D2F8002C9C
:1039D00048F6BF7302EA030181F0100181F0200173
:1039E00041F4004242F08002954C04EB8003C3F89E
:1039F000002C10BD10B5924B03EB8002D2F8002CC6
:103A00004BF68F7302EA030181F4805181F4005177
:103A100041F4004242F08002894C04EB8003C3F879
:103A2000002C10BD864A02EB8001D1F8001C41F445
:103A3000807148F68F72114048F280021143804B2A
:103A400003EB8002C2F8001C70477D4A02EB800144
:103A5000D1F8001C48F68F62114048F280021143F1
:103A6000774B03EB8002C2F8001C7047744A02EBEC
:103A70008001D1F8001C48F68F62114048F28002A4
:103A800011436F4B03EB8002C2F8001C70476C4A75
:103A900002EB8001D1F8001C41F4807148F68F726E
:103AA000114048F280021143654B03EB8002C2F8DB
:103AB000001C7047624A02EB8001D1F8001C41F4FF
:103AC000807148F68F72114048F2800211435C4BBE
:103AD00003EB8002C2F8001C7047594A02EB8001D8
:103AE000D1F8001C48F68F62114048F28002114361
:103AF000534B03EB8002C2F8001C70470146504A4A
:103B000002EB8100D0F8000C00F03000102801D149
:103B1000012070470020FCE70146494A02EB810082
:103B2000D0F8000C00F44050B0F5805F01D10120C6
:103B300070470020FCE7424A02EB8001D1F8001CEC
:103B4000C1F30E0148F68F7211403D4B03EB80022A
:103B5000C2F8001C70473A4A02EB8001D1F8001C01
:103B600048F60F721140364B03EB8002C2F8001C7E
:103B70007047334A02EB8001D1F8001C48F68F727F
:103B800011404CF2800211432D4B03EB8002C2F82E
:103B9000001C70472A4A02EB8001D1F8001C48F64D
:103BA0008F72114048F2C0021143254B03EB800293
:103BB000C2F8001C7047224A02EB8001D1F8001CB9
:103BC00001F4804171B102EB8001D1F8001C48F68C
:103BD0008F7211404CF280021143194B03EB8002AB
:103BE000C2F8001C7047164A02EB8001D1F8001C95
:103BF00001F0400171B102EB8001D1F8001C48F6E0
:103C00008F72114048F2C00211430D4B03EB80024A
:103C1000C2F8001C704710B5094B03EB8002D2F8C4
:103C2000002C48F68F731A4048F280031A430A4367
:103C3000034C04EB8003C3F8002C10BD405C004033
:103C4000005000400146FC4A02EB8100D0F8000C15
:103C500000F00F00704710B54A105200F74B1B6878
:103C60009BB203EBC003F64C44F8132010BD10B513
:103C70004A105300F14A126892B202EBC002121DC0
:103C8000EF4C44F8123010BD0146EC48006880B299
:103C900000EBC100EA4A32F8100080B270470146DA
:103CA000E648006880B200EBC100001DE44A32F82B
:103CB000100080B27047E14A126892B202EBC00273
:103CC000921CDF4B43F81210704702463E290BDD71
:103CD000481101F01F030BB9431E98B24FF4004383
:103CE00043EA8023136007E0481001F001030BB1A1
:103CF000431C98B283021360704710B50246CF4848
:103D0000006880B200EBC200801DCD4C04EB400384
:103D10003E290BDD481101F01F040CB9441EA0B26E
:103D20004FF4004444EA80241C6007E0481001F08E
:103D300001040CB1441CA0B284021C6010BD0146F9
:103D4000BE48006880B200EBC100801CBC4A32F85B
:103D50001000C0F3090070470146B848006880B2FF
:103D600000EBC100801DB64A32F81000C0F3090014
:103D7000704730B54B105B00B04C2468A4B204EB24
:103D8000C004AF4D45F8143053105C00AB4B1B68BA
:103D90009BB203EBC0031B1D45F8134030BD10B5AB
:103DA0004A105200A54B1B689BB203EBC003A44C06
:103DB00044F8132010BD10B54A1053009F4A1268F2
:103DC00092B202EBC002121D9D4C44F8123010BD9D
:103DD00001469A48006880B200EBC100984A32F868
:103DE000100080B2704701469448006880B200EB32
:103DF000C100001D924A32F8100080B2704730B501
:103E00000B46012B1FD18D49096889B201EBC00116
:103E1000891C8B4D05EB41043E2A0BDD511102F04C
:103E20001F050DB94D1EA9B24FF4004545EA812585
:103E3000256007E0511002F001050DB14D1CA9B23B
:103E40008D0225600AE0022B08D17C49096889B2FD
:103E500001EBC001891C7A4C44F81120012B1FD1C1
:103E60007649096889B201EBC001891D744D05EBE3
:103E700041043E2A0BDD511102F01F050DB94D1E04
:103E8000A9B24FF4004545EA8125256007E05110AD
:103E900002F001050DB14D1CA9B28D0225600AE0AA
:103EA000022B08D16549096889B201EBC001891D5F
:103EB000634C44F8112030BD30B5034601291FD1B1
:103EC0005E48006880B200EBC300801C5C4D05EBCF
:103ED00040043E2A0BDD501102F01F050DB9451EAE
:103EE000A8B24FF4004545EA8025256007E0501050
:103EF00002F001050DB1451CA8B2850225600AE05B
:103F0000022908D14D48006880B200EBC300801C34
:103F10004B4C44F8102030BD30B5034601291FD169
:103F20004648006880B200EBC300801D444D05EB9D
:103F300040043E2A0BDD501102F01F050DB9451E4D
:103F4000A8B24FF4004545EA8025256007E05010EF
:103F500002F001050DB1451CA8B2850225600AE0FA
:103F6000022908D13548006880B200EBC300801DEB
:103F7000334C44F8102030BD01463048006880B210
:103F800000EBC100801C2E4A32F81000C0F309007B
:103F9000704701462948006880B200EBC100801DCF
:103FA000274A32F81000C0F3090070470146234841
:103FB000006880B200EBC100801D214A32F8100079
:103FC00000F47C4008B1012070471C48006880B2B2
:103FD00000EBC100801C1A4A32F81000C0F309003F
:103FE00008B10220F0E70020EEE710B5012910D15A
:103FF000114B03EB8002D2F8002C48F68F731A4065
:1040000048F2C0031A430C4C04EB8003C3F8002CA5
:1040100011E002290FD1084B03EB8002D2F8002CEB
:1040200048F68F731A404CF280031A43024C04EB9B
:104030008003C3F8002C10BD00500040505C0040CD
:1040400000600040024641EA022070470146CAB2C1
:104050000B1243EA0220704700201D4908604FF40C
:104060003F401C490880084600881949091F08601C
:10407000002070472DE9F04104460E46154604F035
:104080007F00FFF701FE0746AAB239463046FFF728
:10409000B1FBA9B204F07F00FFF70DFE0020BDE8E0
:1040A000F0812DE9F04104460E46002504F07F0022
:1040B000FFF752FE054604F07F00FFF7F0FD0746CC
:1040C0002A4639463046FFF7AFFB2846BDE8F08167
:1040D000445C004072010020704700000FB40449A6
:1040E00010B503AA029800F009F810BC5DF814FBA3
:1040F000340000207047704770477047074B70B519
:104100000D467B4400F011F80446284600F020F8E4
:1041100010B14FF0FF3070BD204670BD39CAFFFFAF
:1041200001694A1C02610878704700B58FB0CDE97B
:1041300001310021059105497944CDE9031011466B
:10414000684600F02EF80FB000BD0000E5FFFFFF4D
:10415000007B00F080007047754600F03DF8AE46E9
:1041600005006946534620F00700854618B020B583
:10417000FCF790FDBDE820404FF000064FF000072F
:104180004FF000084FF0000B21F00701AC46ACE8FF
:10419000C009ACE8C009ACE8C009ACE8C0098D466C
:1041A00070472DE9F04106460024D6E90170F56814
:1041B0008046304603E04146B847641C3046A84775
:1041C0000028F8D12046BDE8F0810446AFF3008016
:1041D0002046FCF714F80000004870472C09002026
:1041E0001201000202000040830440570002010255
:1041F000030109024300020100C03209040000016A
:10420000020201000524001001052401000104241C
:1042100002020524060001070582030800FF0904C5
:104220000100020A00000007050302400000070524
:104230008102400000040309042603530054004D8A
:10424000006900630072006F0065006C0065006328
:1042500000740072006F006E00690063007300322A
:1042600003530054004D0033003200200056006913
:104270000072007400750061006C00200043004F64
:10428000004D00200050006F0072007400200020DC
:1042900000000000B4420008000000207C01000083
:1042A0006C010008484300087C010020140E000047
:1042B000C8010008011184A24A0400091A0102037E
:1042C00004060708092922692605100204060814B5
:1042D0001A03531254124D1233021F321375220C5B
:1042E0001C084D34040A11FF245133C20112081A6C
:1042F00004071305251B0823041311261B082F048C
:104300001A59041AAF04130F271B08D3081AE10423
:104310001AEF0441324029441AFB300916741A0975
:104320002C13E0413308121AF2083243133542339A
:1043300008041A390832261A5F0829E0225E732021
:084340001A299201200000007F
:0400000508000131BD
:00000001FF
