:020000040800F2
:1000000000500020F5000008ED000008F100000895
:10001000F1000008F1000008F100000800000000F5
:10002000000000000000000000000000ED000008DB
:10003000ED00000800000000ED000008ED000008E1
:10004000ED000008ED000008ED000008ED000008DC
:10005000ED000008ED000008ED000008ED000008CC
:10006000ED000008ED000008ED000008ED000008BC
:10007000ED000008ED000008ED000008ED000008AC
:10008000ED000008ED000008ED000008ED0000089C
:10009000690C0008ED000008ED000008ED00000804
:1000A000ED000008ED000008ED000008ED0000087C
:1000B000ED000008ED000008ED000008ED0000086C
:1000C000ED000008ED000008ED000008ED0000085C
:1000D000ED000008ED000008ED000008ED0000084C
:1000E000ED000008ED000008ED000008704700BFBB
:1000F000FEE700BF334A344B10B59A420BD2D143CE
:10010000CB1823F00300314C0430002319599950C7
:1001100004338342FAD12E4B2E4A93420AD2D9435A
:100120008A1822F00301C9180022043B43F8042F67
:100130008B42FBD101F05EF94FF4803001F078F989
:1001400001F032FA0128044602D000F005F9FEE77A
:10015000102001F043F9022001F036F9002001F0EF
:10016000A5F9002001F0B6F94FF4806001F0A8F97C
:100170004FF4004001F0BEF94FF480304FF4E0112D
:1001800001F072F9204601F079F9392001F0F8F90F
:100190000028FAD0022001F077F901F07FF9082851
:1001A000FBD13D20012101F0BBF90320012101F029
:1001B000ABF94FF40070C0F23000012101F05EF89D
:1001C000C3E700BF00000020900100205823000872
:1001D000900100207C02002038B504464FF40060F6
:1001E000C4F20100012101F047F8142C2DD8DFE8FA
:1001F00004F0383C465B7A842C2C2C2C2C2C2C2C98
:100200002C2C352C990B8B0000F068F94C4D4D4C83
:10021000286000F063F920604FF40060C4F2010030
:10022000102101F029F82868002840F08680062077
:1002300000F0FEF8206808B100F05CFC4FF40060AC
:10024000C4F20100102101F015F84FF40060C4F26F
:1002500001000121BDE8384001F00CB8152000F084
:10026000E7F8062000F0E4F8EFE7062000F0E0F8F9
:10027000012000F0DDF8002000F0DAF8E5E70620C4
:1002800000F0D6F83F20C0F21D002F4C00F06CFAB1
:1002900000232370002000F0CBF823780133DBB279
:1002A0001B2B2370F6D9D0E70620284C00F0C0F8AD
:1002B000274D00232370732000F0BAF82378013310
:1002C000DBB2E85C23700028F6D11F4C0F2B2370A3
:1002D000BBD8002000F0ACF823780133DBB20F2B41
:1002E0002370F6D9B1E7062000F0A2F8FF2000F055
:1002F0009FF8FF2000F09CF8A7E7062000F098F890
:10030000082000F095F8A0E700F076F9114C206085
:1003100078B1062000F08CF8206800F0A3FA00F015
:1003200023FA92E700F0A8F840F00800C3B2082BC7
:1003300097D0152000F07CF887E700F021FB76E7E6
:10034000900100209C010020A001002098010020C5
:10035000842200089401002008B54FF4806001F069
:10036000B9F8002001F0C0F84FF48050012101F0ED
:10037000D7F84FF40000012101F0DEF84FF40060DF
:10038000C4F20100164900F021FF4FF40060C4F2EE
:100390000100144900F01AFF4FF40060C4F201009C
:1003A000114900F013FF4FF400601049C4F201003E
:1003B00000F00CFF45F24040C0F2890000F052FA14
:1003C0004FF4C06001F006F9094801F00DF901F0A1
:1003D00053FD00F051F8FFF7FFFE00F00BF8F8E7CF
:1003E0000400002000000020100000200800002071
:1003F0000C00002010B50C4C238803B910BD01205F
:1004000001F068FE2028FAD122880848C02101F0B6
:10041000FBFD0120218801F0F1FE012001F06CFEBE
:100420000023238010BD00BFAA010020F40100209A
:1004300010B50F4C0F492288531C9BB2402B885497
:10044000238000D010BD012001F044FE2028FAD105
:1004500022880848C02101F0D7FD0120218801F041
:10046000CDFE012001F048FE0023238010BD00BF17
:10047000AA010020F401002038B5154C154D238841
:100480002A789A4206D001339BB25A1E1249238021
:10049000885C38BD032001F026FEB0F5005FF9D17D
:1004A000032001F0D9FEC0B240288CBF4023287041
:1004B0004FF0400208484FF4887188BF2B7001F05C
:1004C000BBFD032001F025FE00220123DEE700BF73
:1004D000B2010020A8010020340200202DE9F041E3
:1004E000424E434C327823889A421CD001339BB24F
:1004F000404D591E934223806F5C36D001339BB22E
:10050000591E15F80180934223804FEA082850D0E5
:1005100001339BB25A1EA85C48EA070747EA00402D
:100520002380BDE8F081032001F0DDFDB0F5005F20
:10053000F9D1032001F090FEC0B240288CBF4023C7
:1005400030704FF488714FF040022A4888BF3370F2
:1005500001F072FD032001F0DCFD32780123254D0E
:100560000021934223806F5CC8D1032001F0BBFDC2
:10057000B0F5005FF9D1032001F06EFEC0B2402853
:100580008CBF402330704FF488714FF040021948FF
:1005900088BF337001F050FD032001F0BAFD3278BE
:1005A0000021012315F80180934223804FEA082897
:1005B000AED1032001F097FDB0F5005FF9D1032023
:1005C00001F04AFEC0B240288CBF402330704FF08B
:1005D000400208484FF4887188BF337001F02CFD49
:1005E000032001F096FD0022012394E7A8010020DA
:1005F000B2010020340200202DE9F843574E584C38
:1006000033782288934226D0013292B2554D511E42
:100610009A42228015F8018040D0013292B2511ED8
:1006200015F801909A4222804FEA09295AD00132E6
:1006300092B2511E6F5C49EA08089A4248EA07479D
:1006400022806DD0013292B2531EE85C228047EACC
:100650000060BDE8F883032001F045FDB0F5005FC0
:10066000F9D1032001F0F8FDC0B240288CBF40232F
:1006700030704FF488714FF040023A4888BF3370B1
:1006800001F0DAFC032001F044FD33780122354DFE
:1006900000219A42228015F80180BED1032001F08A
:1006A00022FDB0F5005FF9D1032001F0D5FDC0B205
:1006B00040288CBF402330704FF488714FF04002C7
:1006C000284888BF337001F0B7FC032001F021FDFA
:1006D00033780021012215F801909A4222804FEAD6
:1006E0000929A4D1032001F0FEFCB0F5005FF9D187
:1006F000032001F0B1FDC0B240288CBF4023307010
:100700004FF488714FF04002164888BF337001F0F3
:1007100093FC032001F0FDFC33780021012289E7DE
:10072000032001F0E0FCB0F5005FF9D1032001F0F7
:1007300093FDC0B240288CBF402330704FF0400280
:1007400008484FF4887188BF337001F075FC0320AE
:1007500001F0DFFC0023012277E700BFA8010020A1
:10076000B20100203402002070B53C4C3C4D23887F
:1007700006465A1C92B2402A2280E85415D0991C91
:1007800089B2000A40292180A8543BD003339BB290
:10079000320C402B23806A541ED05A1C92B2360E63
:1007A000402AEE54228045D070BD012001F092FC19
:1007B0002028FAD122882A48C02101F025FC0120F6
:1007C000218801F01BFD012001F096FC330C320A58
:1007D0006B702A700223E0E7012001F07BFC2028E7
:1007E000FAD122881E48C02101F00EFC0120218888
:1007F00001F004FD012001F07FFC360E01232E7074
:10080000238070BD012001F065FC2028FAD12288E8
:100810001348C02101F0F8FB0120218801F0EEFC13
:10082000012001F069FC320C0223360E2A706E7032
:10083000238070BD012001F04DFC2028FAD12288D0
:100840000748C02101F0E0FB0120218801F0D6FC1F
:10085000012001F051FC0023238070BDAA0100207B
:10086000F401002038B549F2435344F6A222414C2A
:10087000414DC0F20803C0F20402382198422260C0
:10088000298057D942F6872349F24452C0F2110316
:10089000C0F2080230219842226029804AD945F2EC
:1008A0000F5342F68822C0F22203C0F2110228211F
:1008B0009842226029803DD94AF61F2345F2105202
:1008C000C0F24403C0F22202202198422260298013
:1008D00030D945F23F434AF62022C0F28903C0F2E4
:1008E0004402182198422260298023D94AF67F03C6
:1008F00045F24042C0F21213C0F289021021984220
:100900002260298016D945F2FF03C0F225239842C0
:100910004AF68002C0F2121288BF4FF4A24322604E
:100920004FF0080184BFC0F225230022298084BF34
:1009300023602A804FF44050C4F2010000F0C8FC4C
:100940000E4B2A884FF440501946C4F201009A8198
:1009500000F0EEFC4FF44050C4F20100002100F022
:1009600020FD4FF44050C4F20100012100F0FFFCD3
:10097000206838BDA4010020B00100204000002004
:10098000F8B5574D574C2A7823880746D11A81422B
:1009900024D8991A934200EB01071FD0524E01331D
:1009A0009BB2F2184FF4405012F8011CC4F201003F
:1009B000238000F0F1FC4FF44050C4F2010001210B
:1009C00000F0FBFC0028F6D04FF44050C4F20100C8
:1009D00000F0E4FC23882A789A42E0D1002F7ED0F0
:1009E000414E032001F07FFBB0F5005FF9D10320F9
:1009F00001F032FCC0B240288CBF402328704FF079
:100A0000400239484FF4887188BF2B7001F014FB05
:100A1000032001F07EFB2A7800233F2A238023D87D
:100A2000BF1AF2B101339BB2F2184FF4405012F8E2
:100A3000011CC4F20100238000F0AEFC4FF44050D2
:100A4000C4F20100012100F0B8FC0028F6D04FF4F8
:100A50004050C4F2010000F0A1FC23882A789A4299
:100A6000E0D1002FBDD1F8BD1C20C4F202001F4907
:100A700000F076FB3020C4F202001D4900F070FB4C
:100A80004FF44050C4F201000321012200F07BFC2E
:100A90001C20C4F20200012100F081FB3020C4F2CE
:100AA00002000121403F00F07AFB202000F080FB93
:100AB0000028FAD04FF44050C4F201000321002274
:100AC00000F061FC1C20C4F2020000F0D9FA3020D2
:100AD000C4F2020000F0D4FA002F82D1C3E7F8BDBF
:100AE000A8010020B2010020340200208000002074
:100AF000140000202DE9F041494C06462388002BC4
:100B00007AD13F2E51D935461C20C4F20200454906
:100B100000F026FB3020C4F20200434900F020FB25
:100B20004FF44050C4F201000321012200F02BFCDD
:100B30001C20C4F20200012100F031FB3020C4F27D
:100B40000200012100F02BFB202000F031FB0028E7
:100B5000FAD04FF4405003210022C4F2010000F00B
:100B600012FC1C20C4F2020000F08AFA3020C4F209
:100B7000020000F085FA40232380012001F0AAFA48
:100B80002028FAD122882948C02101F03DFA01200D
:100B9000218801F033FB403D012001F0ADFA002334
:100BA0003F2D2380B0D806F03F061EB3204D002312
:100BB000DFF878802B604FF44050C4F20100002130
:100BC00000F0EAFB4FF44050C4F20100012100F0B4
:100BD000F4FB0028F6D04FF44050C4F201002F6817
:100BE00000F0DCFB2B6808F807000133B3422B60F0
:100BF000E1D32680BDE8F081012001F06BFA2028C6
:100C0000FAD122880948C02101F0FEF9012021888B
:100C100001F0F4FA012001F06FFA0023238070E75D
:100C2000AA0100208000002054000020F4010020D0
:100C3000AC01002030B445F6404345F6444540F24F
:100C4000E812C4F2000300214FF4E0540120C4F282
:100C50000005C2F20002186019600846296014807D
:100C60001C6030BC704700BF45F64442C4F200022D
:100C700038B51368144C9BB2144D238021882B88FF
:100C80001940890507D512494FF6FF5010600A78C0
:100C90000132D2B20A7022881A4012040FD422887C
:100CA00002F48062134209D045F64443094AC4F273
:100CB00000034FF6FF3119605368984738BD01F0C3
:100CC000F7F82B88EBE700BF74020020E801002052
:100CD000B50100205401002040F2B813C2F2000315
:100CE00004221A60704700BF034B1A78202A04BF01
:100CF00000221A70704700BFBC010020704700BF7F
:100D0000212810B5034603D0202811D0022010BDA1
:100D10000F4A13681B7803F07F03212BF6D10D498E
:100D200013680024204699615C828847204610BDE4
:100D3000074A1168097801F07F01212903D0064A8A
:100D40000220137010BD044804490370E8E700BF97
:100D5000E0010020950D0008BC010020AD0D000849
:100D6000074B1B681B7803F07F03212B01D0022067
:100D70007047022801D02228F9D10020704700BF17
:100D8000E001002009B1022070470128FBD8084685
:100D9000704700BF08B103487047034B08221B6827
:100DA0001A82704784010020E001002008B1034846
:100DB0007047034B08221B681A8270478401002089
:100DC000E0010020054B1B68DB78042B04D80449A4
:100DD00001EBC30100F0F2BD00207047E0010020EC
:100DE0003401002040F2E401C2F2000100F0E6BD4F
:100DF00040F22C11C2F2000100F0E0BD38B540F223
:100E0000E013C2F200031B680024C0259C72DC7250
:100E10005D72204601F022F920464FF4007101F086
:100E200025F92046102101F02DF92046402101F03E
:100E3000B9F92046802101F0A5F9204601F076F9A4
:100E400040F25413C2F2000393F82C10204601F034
:100E5000E3F9204601F05DF92146012001F006F991
:100E60002946012001F08EF90120202101F00AF924
:100E70002146012001F01AF902204FF4C06101F06F
:100E8000F5F802204FF4807101F07CF92146022030
:100E900001F00CF90220202101F0F4F82146032092
:100EA00001F0E4F803204FF4887101F07BF903208E
:100EB000402101F0B1F903204FF4405101F0F6F860
:100EC0002146032001F0DEF8204600F087FF0122D2
:100ED00040F2B8134FF40060C2F200031146C4F2AE
:100EE00001001A60BDE8384000F0C6B9064B9B7A95
:100EF00003B97047054B4FF400600522C4F20100AE
:100F000001211A6000F0B6B9C0010020B80100202C
:100F10004FF2E873C1F6FF7319684FF2EC724FF2AB
:100F2000F073C1F6FF72C1F6FF73106870B51A68EE
:100F300000297DD001F00F044D4B092C8CBF3734B4
:100F40003034090900259C7001F00F04092CDD7074
:100F5000474D8CBF3734303409092C7101F00F0430
:100F60000025092C5D71424D8CBF37343034C1F3FC
:100F70000311AC7100240929DC713D4C94BF303160
:100F80003731217200F00F01002409295C72384CBE
:100F90008CBF373130310009A17200F00F010024FD
:100FA0000929DC72324C8CBF373130310009217392
:100FB00000F00F01002409295C732D4C8CBF3731E0
:100FC0003031C0F30310A17300210928D9732849D7
:100FD00094BF30303730087402F00F010020092927
:100FE000587423488CBF373130311209817402F0B4
:100FF0000F0100200929D8741D488CBF37313031CA
:101000001209017502F00F010020092958751848CE
:101010008CBF37313031C2F3031281750021092AA8
:10102000D975134994BF303237320A7600225A7686
:10103000104B00241B68104E9C72FFF7FBFD45F619
:101040004441C4F200010D4D45F640434FF40060A9
:101050000C604FF40642C4F20003C4F20100012107
:1010600032801A602C60BDE8704000F005B900BF06
:1010700010010020E0010020E8010020B80100205C
:10108000036823F00103036000230360436083606F
:10109000C3602D4B984233D011D83C3B984229D0A5
:1010A00006D8283B984221D0143398424BD11FE0F8
:1010B000264B984220D01433984244D11EE0244B52
:1010C00098422CD008D8A3F5677398421DD003F539
:1010D0006273984237D11DE01E4B984229D01433D9
:1010E00098422BD0283B98422DD11DE01A4B12E09C
:1010F000194B15E0184B18E0174B1BE0164B1EE080
:10110000154B5A6842F470021CE0134B5A6842F0C7
:10111000706217E0114B5A6842F00F0212E00F4B59
:101120005A6842F0F0020DE00C4B5A6842F47062CB
:1011300008E00A4B5A6842F4704203E0074B5A68D1
:1011400042F470225A6070476C0002404400024032
:101150001C0402404404024000000240000402401B
:1011600070B58C680D6A066845EA04020C698B6AE2
:1011700022434C6926F4FF4622438C6926F0700610
:101180002243CC6914434A6A224313433343036026
:10119000CB6843600B6883604B68C36070BD0368B5
:1011A00011B143F0010301E023F001030360704734
:1011B000C3004CBF034B044B1B6803420CBF002011
:1011C000012070470004024000000240CB782DE966
:1011D000F043DA0648BF8A78098803F00F0548BF54
:1011E000154311F0FF0F1FD0046800224FF0010CCF
:1011F0004FF00F080CFA02F707EA0106BE420FD1C2
:10120000970008FA07F905FA07F724EA0904282BDA
:1012100044EA070401D1466102E0482B08BF066199
:101220000132082AE6D10460FF2921D9446800224E
:101230004FF0010C4FF00F0802F108070CFA07F706
:1012400007EA0106BE420FD1970008FA07F905FA2E
:1012500007F724EA0904282B44EA070401D1466170
:1012600002E0482B08BF06610132082AE4D144603D
:10127000BDE8F083016170474161704730B5134AA2
:1012800000F44015B5F5401F536884B206D1556887
:1012900023F0706325F0706555600FE0C20205D53C
:1012A000C0F30342032505FA02F203E0420D1201E6
:1012B00004FA02F223EA020343F0706319B1400D0D
:1012C000000184402343014A536030BD00000140C7
:1012D00008B5164B98421CD003F57443984204D0CD
:1012E000A3F57843984220D10BE04FF480500121C0
:1012F00000F02EF94FF480500021BDE8084000F0C6
:1013000027B94FF48040012100F02EF94FF48040BE
:1013100006E04FF40040012100F026F94FF40040B0
:101320000021BDE8084000F01FB908BD003C0040A6
:101330000B8810B54C88028823438C8802F44152F4
:101340002343CC8823430C8923434C8923438C8932
:101350002343CC89234313439BB20380838B23F421
:1013600000631B041B0C83830B8A038210BD03885C
:1013700019B19BB243F0400303E023F040031B0488
:101380001B0C0380704783889BB20AB1194301E0AC
:1013900023EA01018180704781817047808980B292
:1013A0007047038819B19BB243F4005303E023F460
:1013B00000531B041B0C03807047038919420CBFA8
:1013C0000020012070470000034B1A6802F0380229
:1013D00010431860704700BF00200240044B1A6899
:1013E00022F010021A601A6810431860704700BF9C
:1013F000002002400C4B1A6842F001021A60596842
:101400000A4A0A405A601A6822F0847222F4803232
:101410001A601A6822F480221A605A6822F4FE02C6
:101420005A6000229A607047001002400000FFF8E6
:101430000C4BB0F5803F1A6822F480321A601A68AB
:1014400022F480221A6003D0B0F5802F08D103E087
:101450001A6842F4803202E01A6842F4A0221A604C
:10146000704700BF00100240034B5A6822F47C1200
:10147000104301435960704700100240014B18604F
:10148000704700BF60004242034B5A6822F00302DB
:1014900010435860704700BF00100240024B58686C
:1014A00000F00C00704700BF00100240034B5A6868
:1014B00022F0F00210435860704700BF0010024055
:1014C000034B5A6822F4E06210435860704700BF33
:1014D00000100240034B5A6822F4605242EAC000F6
:1014E0005860704700100240014B1860704700BF01
:1014F000D8004242034B5A6822F4404210435860DD
:10150000704700BF00100240044B5A6909B11043F4
:1015100001E022EA00005861704700BF001002405D
:10152000044B9A6909B1104301E022EA0000986176
:10153000704700BF00100240044BDA6909B1104344
:1015400001E022EA0000D861704700BF00100240AD
:10155000044BDA6809B1104301E022EA0000D860C8
:10156000704700BF00100240044B1A6909B11043D4
:1015700001E022EA00001861704700BF001002403D
:101580004309012B074A01D1136803E0022B0CBF6A
:10159000136A536A00F01F0023FA00F000F0010004
:1015A000704700BF0010024007B5002301933120AF
:1015B000FFF7E6FF019B0133019318B9019BB3F5D7
:1015C000A06FF4D13120FFF7DBFF003018BF0120FE
:1015D0000EBD000040F0BF60024B40F40030D86008
:1015E000704700BF00ED00E0C37810B5F3B1154BB4
:1015F0004178DB688478DB43C3F30223C3F1040240
:1016000091400F22DA40037822400A43120103F18D
:101610006043D2B203F5614383F8002303780122CB
:10162000590903F01F0302FA03F307E003780122CC
:10163000590903F01F0302FA03F32031024A42F86A
:10164000213010BD00ED00E000E100E010B5064CD7
:1016500018B9236801221A8210BD044B1B681B684D
:10166000984720680A3010BDE0010020E401002006
:1016700010B5064C18B9236801221A8210BD044B1C
:101680001B689B68984720680C3010BDE001002063
:10169000E401002008B5204A18B9136802221A8212
:1016A00008BD1E4B002012681880117811F07F01D0
:1016B0000ED1527A910644BF02211970174B12F0D5
:1016C000400F1A7814BF22F0010242F0010219E023
:1016D00001291ED002291DD1517901F00F0292007B
:1016E00002F1804202F5B84211F0800F126803D077
:1016F00002F03002102A03E002F44052B2F5805F9B
:1017000001D101221A70064B1B681B6998470348D8
:1017100008BD184608BD00BFE0010020BE01002042
:10172000E4010020F8B5224B1C68238A267AABB965
:10173000042E13D11F4820490278012A0AD11F4ADA
:1017400014681F4AA4B2A2185200136030220A8003
:10175000037028E010230B80072624E0A58AAB4203
:101760008CBF022604269D4228BF1D462846A36939
:1017700098470746002000F025FD2A4601463846D6
:1017800000F042FC2946002000F038FD238A302278
:101790005B1B2382638AED18074B65821A80094B15
:1017A0004FF440521A80024B1B681E72F8BD00BFF6
:1017B000E0010020BD010020F2010020505C00404B
:1017C00002300020F001002010B50A4B0A491B68C6
:1017D0004978DA7891420AD3997841B99C8834B92A
:1017E0009A72064B1B685B689847204610BD022022
:1017F00010BD00BFE00100208C010020E4010020AA
:1018000038B50E4A0E4C1268236892695879D97817
:10181000904723689A7A7AB170B91A7962B99D783B
:1018200055B9084B1B68DB689847236828465A79E6
:10183000DA72DA781A7338BD022038BDEC01002064
:10184000E0010020E401002010B52F4B1B68187840
:1018500010F07F0004D15A7A22F020025A7210BD93
:1018600002284FD15A88002A4DD11A79002A4AD12C
:101870005A79264C22F08000810001F1804101F567
:10188000B8410968247812F0800F14BF01F03001CC
:1018900001F44051A04235D2002933D09B7A002B6D
:1018A00030D0840004F1804404F5B84412F0800F75
:1018B00023680CD003F03003102B1DD1C4B2204696
:1018C00000F04FFC2046302100F0DCFB14E003F474
:1018D0004053B3F5805F0FD128B90D4B93F82C100E
:1018E00000F09AFC01E000F02CFC22684BF68F73AC
:1018F000134083F440532360064B1B685B69984791
:10190000002010BD022010BDE00100208C0100204D
:1019100054010020E401002010B51C4B1C4C196838
:1019200024784A7922F08003980000F1804000F585
:10193000B840006812F0800F14BF00F0300000F4CF
:101940004050A3421FD24C88ECB9E0B1897AD1B1A2
:101950009B0003F1804303F5B84312F0800F196830
:1019600005D048F6BF720A4082F0100204E04BF640
:101970008F720A4082F480521A60064B1B689B6982
:101980009847002010BD022010BD00BFE0010020DC
:101990008C010020E401002008B5064B1B685A7A30
:1019A00042F020025A72044B1B68DB699847002002
:1019B00008BD00BFE0010020E4010020054B1A68CB
:1019C000538A18B98988CB1A138270470868C018DF
:1019D000704700BFE001002008B50C4B002093F8D1
:1019E0002C1000F019FC0A4B1B68187A082806D145
:1019F000084B4FF480521A80074B10221A80B0F126
:101A0000090CDCF1000050EB0C0008BD5401002073
:101A1000E0010020F0010020F201002070B52C4B05
:101A20001C68237A032B01D0052B43D1A369228A9A
:101A3000ABB1A2B1A58A954228BF15462846984762
:101A4000238A06465B1B2382638A0020EB1863828D
:101A500000F0C6FB2A460146304600F0EDFA238A24
:101A600053B11C4B00204FF4405201461A8000F045
:101A7000C5FB194B30221A80A28A238A9A42144A43
:101A800002D81368032202E01BB1136805221A7200
:101A90000CE0126806211172104A1168104A89B2CE
:101AA0008A18520013600C4B30221A80084B1B68B6
:101AB0001B7A06E0072B03D10A4B1B68DB689847AB
:101AC0000823034A12681372BDE87040FFF784BF11
:101AD000E0010020F0010020F2010020505C0040F5
:101AE00002300020EC010020944B73B51A68944E2C
:101AF000944B92B2D31835685B001C682B7A092B83
:101B000015D0A4B2640004F1804404F5C0442378E5
:101B10002B7063786B70A08800F0AEFB6880208922
:101B2000356800F0A9FBA880A2893368DA80844D6B
:101B300001222B681A72DA885C78002A64D11A783C
:101B400012F07F0238D1092C02D1FFF73DFE45E0AB
:101B5000052C0FD193F90320002A01DA08234FE066
:101B60009A78002AFAD19A88002AF7D19B7A002B1A
:101B700038D0F3E7032C13D1DA78012A07D0724B5F
:101B800020461B685B699847032829D137E09A886B
:101B9000002AF4D15B7A9806F1D5FFF7FDFE1DE02F
:101BA000012CECD1DA78012AE9D19A88002AE6D111
:101BB0005B7A9906E3D50AE0012A04D10B2CDED129
:101BC000FFF71EFE0AE0022AD9D1012C02D1FFF74D
:101BD0003BFE03E0032CD2D1FFF79EFE10B1CEE70F
:101BE0000028BBD1554B1A68584B92B2D3185B00F2
:101BF00000221A60564B30221A80062300E0092387
:101C00004F4A12681372D3E0062C13D11A78520689
:101C100079D19A784C4B012A02D11B68DB6968E0C4
:101C2000022A02D11B681B6A63E0032A6BD11B687E
:101C30005B6A5EE0002C3DD15988002963D15A6867
:101C400022F47F42B2F5003F5DD11A7812F07F0294
:101C500004D19B88002B00F0AE8054E0012A0CD107
:101C6000394A587912689269904700284BD12B68FD
:101C70009B7A002B40F09F8045E0022A43D15B799C
:101C8000344803F00F018A0002F1804202F5B842A5
:101C90001268007813F0800F14BF02F0300202F4D3
:101CA000405281422FD213F0700F2CD1002A40F005
:101CB000828028E0082C03D11B785B067DD022E0CF
:101CC0000A2C20D11A7802F07F02012A1BD19A7ABD
:101CD000CAB15988B9B95A6822F47F42B2F5803F37
:101CE00011D1194A5879126892699047002866D034
:101CF00009E043B1124A00241268204654829361DD
:101D0000984720460AE0104B0D4C1A682368126968
:101D100058789047032801D1236806E0084B4FF616
:101D2000FF711B681A8A8A4201D1092203E0022846
:101D300000D08AB908221A723AE000BF505C004015
:101D4000E001002004300020EC01002002300020DF
:101D5000F20100208C01002093F90010002921DA03
:101D6000D98801910198824202D9019A1A8211E020
:101D70008A420FD21349096891F82C108A4201D285
:101D8000002105E092FBF1F001FB102212B90121C4
:101D90000D4A11700B4A126892F82C209A82FFF7B4
:101DA000C1FC05E003221A72084B4FF440521A801E
:101DB000FFF712FE05E0064B9CE7064B9AE7064B41
:101DC00098E77CBDEC010020BD010020F00100205F
:101DD000951600084D1600087116000830B50B4B1B
:101DE0001C7800230BE003F1805101F5B851890004
:101DF0000D6848F68F722A401A430A600133A342E5
:101E0000F1D3034B40F08000186030BD8C010020FE
:101E10004C5C004010B514490B680C461A7A022A33
:101E200001D0042A04D1FFF77DFC23681B7A13E05C
:101E3000062A10D15A78052A09D11A78520606D1F5
:101E4000D878FFF7CBFF094B1B681B6A9847084BF4
:101E50001B689B6898470823034A12681372BDE801
:101E60001040FFF7B9BD00BFE0010020E4010020F1
:101E7000EC0100207047000008B5074A074B0849ED
:101E8000136002221A72074B074A1360074A1B6845
:101E90001160984708BD00BFE0010020C00100208C
:101EA000EC00002054010020EC010020E40100209F
:101EB0002DE9F0414C4F4D4E47F6FF783B689AB202
:101EC0001B04328040F18D80C7F800803388484A77
:101ED00003F00F031370002B5CD1464C464D236872
:101EE000226803F440532B80444B02F030021A80E6
:101EF00022684BF68F73134083F4005323602268EB
:101F000048F6BF73134083F0200323603388D8065C
:101F100000D402E02368190607D5226848F60F733B
:101F200013402360FFF776FF12E01A0507D52268F9
:101F300040F68F7313402360FFF7D6FD08E01804C6
:101F4000BCD5226840F68F7313402360FFF766FD0F
:101F500022684BF68F7313402A88D1044CBF83F458
:101F600080539BB29204234A48BF83F4005313600A
:101F7000116848F6BF730B4020490988C8064CBF5A
:101F800083F010039BB2880648BF83F020031360E0
:101F9000BDE8F0819A0002F1804202F5B84214686F
:101FA000210409D5106840F68F7101401160144A70
:101FB000013B52F82330984723067FF57FAF0C4B47
:101FC0001A7848F60F73910001F1804101F5B8418C
:101FD0000868013A03400B600A4B53F822309847D7
:101FE0006CE7BDE8F08100BF445C00407402002053
:101FF000DC010020005C0040F0010020F201002024
:10200000C8000020AC00002001F10051013201F5B0
:10201000405130B552104900002308E010F8015C2F
:1020200010F8024C44EA052421F82340013393427E
:1020300000F10200F2D130BD01F1005110B50132C2
:1020400001F5405452106400002304E054F82310BA
:1020500020F8131001339342F8D110BD4FF6F873F6
:10206000014A034013607047505C0040800000F15B
:10207000804202F5B842106848F68F1303401943B6
:1020800011607047800000F1804202F5B84210688C
:1020900048F6BF730340C8064CBF83F010039BB2E1
:1020A000890648BF83F0200313607047800000F169
:1020B000804202F5B84210684BF68F730340C804A3
:1020C0004CBF83F480539BB2890448BF83F4005310
:1020D00013607047800000F1804303F5B84318682F
:1020E00000F030007047800000F1804303F5B843F2
:1020F000186800F440507047800000F1804202F5FB
:10210000B842116848F6BF730B4083F03003136088
:102110007047800000F1804202F5B84211684BF62A
:102120008F730B4083F4405313607047800000F1BD
:10213000804202F5B842116848F68F630B40136085
:102140007047800000F1804303F5B8431A685204D9
:1021500006D5196848F68F720A4042F480421A6028
:102160007047800000F1804303F5B8431A685106B8
:1021700006D5196848F68F720A4042F040021A608C
:1021800070470000064B49081B6849009BB203EBEF
:10219000C00000F1005303F540535B001960704725
:1021A000505C0040054B49081B6849009BB203EB9B
:1021B000C000034BC3185B0019607047505C0040BF
:1021C00004300020054B1B689BB203EBC00000F1FC
:1021D000005303F540535B0018887047505C004083
:1021E000044B1B689BB203EBC000034BC3185B009E
:1021F00018887047505C004004300020044B1B6876
:102200009BB203EBC000034BC3185B00196070471F
:10221000505C0040023000200D4B3E291B689BB2F1
:1022200003EBC0000B4B03444FEA430209D94B09AF
:10223000C90604BF03F1FF339BB29B0243F4004382
:1022400004E04B08C80748BF01339B021360704786
:10225000505C004006300020054B1B689BB203EB2E
:10226000C000044BC3185B001868C0F30900704736
:10227000505C004006300020C3B2000A40EA032050
:102280007047000073657270726F672D53544D3341
:1022900032564350000000002603530054004D0006
:1022A0006900630072006F0065006C0065006300E8
:1022B000740072006F006E0069006300730000001C
:1022C0001201000202000040830440570002010294
:1022D00003010000040309043C0366006C00610074
:1022E0007300680072006F006D002E006F007200B6
:1022F00067002000730065007200700072006F00BC
:1023000067002D00530054004D003300320056008A
:102310004300500009024300020100C032090400DA
:102320000001020201000524001001052401000142
:10233000042402020524060001070582030800FFA9
:1023400009040100020A0000020705030240000020
:082350000705810240000000B6
:10235800A00003180100021010000310140100016E
:10236800400003040C30014034020020100000003B
:102378004000000000000000800000000000000095
:102388000000000000000000000000000000000045
:10239800000004010000000000000002000000002E
:1023A800070000000C300140B401002010000000BC
:1023B80040000000000000000000000000000000D5
:1023C8000000000000000000000000000000000005
:1023D8000C300140F4010020000000004000000023
:1023E8000000000080000000000000000000000065
:1023F800000000000020000000000000751E00081A
:10240800751E0008751E0008751E0008751E000858
:10241800751E0008751E0008751E0008751E000848
:10242800751E0008751E0008751E0008751E000838
:10243800751E00081423000843000000751E0008DC
:10244800ED0E0008751E0008751E0008751E0008B0
:10245800751E0008751E0008751E0008D90C0008B6
:102468001A03530054004D00330032004600310077
:10247800000000000000000000000000C02200086A
:1024880012000000D422000804000000982200086E
:1024980026000000D82200083C000000100100209F
:1024A8001A000000110F0008FD0D0008E90C0008D3
:1024B800FD0C0008010D0008610D0008850D0008DD
:1024C800F10D0008E50D0008C50D0008000000002A
:1024D8004000000000C201000000080004010000E4
:04000005080000F5FA
:00000001FF
