:020000040800F2
:10000000000E00200D020008730C0008690B0008A8
:10001000710C0008B5020008A91C000800000000CF
:10002000000000000000000000000000B511000802
:100030006509000800000000190E000855180008A6
:1000400027020008270200082702000827020008EC
:1000500027020008270200082702000827020008DC
:1000600027020008270200082702000827020008CC
:1000700027020008270200082702000827020008BC
:1000800027020008270200082702000827020008AC
:10009000391C000827020008270200082702000870
:1000A000270200082702000827020008270200088C
:1000B000270200082702000827020008270200087C
:1000C000270200082702000827020008270200086C
:1000D00027020008A91800082702000827020008C4
:1000E0002702000827020008451A00082702000816
:1000F000270200082702000827020008270200083C
:10010000270200082702000827020008270200082B
:10011000270200082702000827020008270200081B
:10012000270200082702000827020008270200080B
:1001300000F002F800F05AF80AA090E8000C82449F
:100140008344AAF10107DA4501D100F04FF8AFF27C
:10015000090EBAE80F0013F0010F18BFFB1A43F0A5
:100160000103184720250000402500000A444FF0F5
:10017000000C10F8013B13F0070408BF10F8014B06
:100180001D1108BF10F8015B641E05D010F8016B4B
:10019000641E01F8016BF9D113F0080F1EBF10F8AF
:1001A000014BAD1C0C1B09D16D1E58BF01F801CBD2
:1001B000FAD505E014F8016B01F8016B6D1EF9D555
:1001C0009142D6D37047000000230024002500266A
:1001D000103A28BF78C1FBD8520728BF30C148BFAA
:1001E0000B6070471FB51FBD10B510BD00F033F890
:1001F0001146FFF7F7FF01F01BFF00F051F803B4C1
:10020000FFF7F2FF03BC01F08DFE000009488047B4
:1002100009480047FEE7FEE7FEE7FEE7FEE7FEE7E8
:10022000FEE7FEE7FEE7FEE704480549054A064B00
:10023000704700005918000831010008000800202C
:10024000000E0020000A0020000A002070477047BE
:10025000704770477047754600F028F8AE460500B5
:100260006946534620F00700854618B020B5FFF7D1
:10027000DBFFBDE820404FF000064FF000074FF0D5
:1002800000084FF0000B21F00701AC46ACE8C009B4
:10029000ACE8C009ACE8C009ACE8C0098D467047BD
:1002A0000446AFF300802046FFF7A9FF00487047DF
:1002B0009C070020FEE7C1B2000A40EA0120704717
:1002C0002DE9F84F0020ADF80000DFF834A14BF61F
:1002D000BF7648F280074A4D4A4C40F68F7848F680
:1002E0000F7BDFF824910AF1440A31E00888474A7D
:1002F00010F00F00107034D0454901EB8001D1F8A7
:10030000002CADF80020BDF8002012040BD5D1F868
:10031000002C02EA0802C1F8002C3E4901EB8000E3
:1003200050F8040C8047BDF80000000610D537488F
:100330003749007801EB8001D1F8002C02EA0B026A
:10034000C1F8002C344901EB800050F8040C8047C0
:10035000DAF800004946A9F800000004C6D4BDE858
:10036000F88F28682080208800F030006080208886
:1003700000F4405020802868304080F4005080F025
:100380002000384328600888C006286815D400EA91
:100390000B00286000F0EAFB26E02188890401D5E3
:1003A00080F400506188C90626D46188890601D589
:1003B00080F0200038432860D1E7ADF80000BDF898
:1003C0000000000506D5286800EA0800286001F052
:1003D0002DF809E0BDF800000004B9D5286800EA4E
:1003E0000800286000F0E4FC286821883040C90437
:1003F000D3D580F48050D0E780F01000D5E700001E
:10040000005C0040760100207A000020640100209A
:1004100000500040A0000020840000208100084817
:100420000844D0F8001C490409D5D0F8001C48F64F
:100430008F7211404CF280021143C0F8001C7047CB
:1004400000500040810008480844D0F8001C4906CC
:1004500009D5D0F8001C48F68F72114048F2C0024E
:100460001143C0F8001C704700500040810006484E
:100470000144D1F8000C48F68F62104048F2800227
:100480001043C1F8000C704700500040002901687B
:1004900002D041F0010102E04FF6FE72114001600E
:1004A0007047000001684FF6FE72114001600021A4
:1004B000016041608160C1603149314A0839904230
:1004C00003D1486840F00F0006E02D4A14329042F4
:1004D00004D1486840F0F00048607047284A28324C
:1004E000904203D1486840F47060F5E7244A3C32FA
:1004F000904203D1486840F47040EDE7204A503202
:10050000904203D1486840F47020E5E71C4A643209
:10051000904203D1486840F47000DDE7184A783211
:10052000904203D1486840F07060D5E7154A111F2A
:10053000904203D1086840F00F0006E0114A1432DF
:10054000904204D1086840F0F000086070470D4AFE
:100550002832904203D1086840F47060F5E7094AF8
:100560003C32904203D1086840F47040EDE7054A00
:1005700050329042EAD1086840F47020E5E700006C
:10058000080002400804024001460020CA0001D5CC
:10059000034A00E0034A12680A4200D00120704773
:1005A000000402400000024030B5036847F6F072D4
:1005B00093430C6A8A682243D1E904452C432243C1
:1005C0008C692243CC6922434C6A22438C6A2243C1
:1005D0001A430260CA6842600A6882604968C16062
:1005E00030BD000070B50121032000F04FFC1A4817
:1005F000FFF758FF18481430FFF754FF18491948FF
:10060000164BC1E9003040220020C1E902028024DB
:10061000C1E904048861D501C861C1E9080588629F
:100620002C31114DC1E9003510258D60C1E9032041
:10063000C1E90540C8610862486288622C310B60DC
:10064000C1E9032048618861C86108624862074BBC
:100650008862C1E9013570BD1C0002400C300140C8
:100660007C010020DA0200201A0300202400002070
:100670002DE9F047DFF89480254F4FF03009D8F886
:10068000001001F11005088A0E7A08B9042E04D072
:10069000AC88A04215D8042614E01E480178012930
:1006A00003D00726102038802BE01B4A0021126857
:1006B0001A4B120403EBD2325160A7F8009001707C
:1006C0001FE00226844200D90446A96820468847D4
:1006D0008246002000F014FA01462246504601F0FE
:1006E000E5FA2146002000F0FDFD2888001B288047
:1006F000688820446880A7F8009009494FF440506A
:100700000880D8F800000672BDE8F0876801002074
:100710007801002060010020505C00400060004033
:10072000760100202DE9F047224EDFF88C8030273B
:10073000356835F8100FA968A9B100B3AC888442B8
:1007400000D904462046884781462888001B288017
:10075000688820446880002000F0A6F901462246FF
:10076000484600F049FB288848B114494FF44050EE
:1007700008800021084600F0B5FDA8F80070288820
:10078000A988884201D3032001E020B10520316807
:100790000872BDE8F0873168062008720849002019
:1007A0000968084A090402EBD1314860A8F80070D2
:1007B000EFE70000680100207801002076010020AA
:1007C000505C004000600040F8B55D4C5D4D09266E
:1007D0002068002729684278062A05D0AAB1082A8D
:1007E0004DD00A2A50D06BE00278520668D180784A
:1007F000012804D0022804D0032804D060E0C9698D
:1008000056E0096A54E0496A52E04288B2BBC288A5
:10081000022A55D102798ABB0278530601D1838816
:1008200033B102F07F02012A04D0022A0CD047E043
:1008300045493DE08A69407900219047F0B9206838
:10084000807A0028F4D13BE0417901F00F0001F0FB
:1008500070020B063D4901EB8001D1F8001C03D565
:10086000C1F30111090102E0C1F301310903384B61
:100870001B78834224D90AB90029D9D120E0007815
:1008800040061DD1334913E0027802F07F02012AAD
:1008900016D1827AA2B1428892B9027982B9C2880D
:1008A000012A0DD18A6940790021904740B92A492F
:1008B00031B120684782816100208847002006E02E
:1008C00029682068096940788847032813D021687F
:1008D0000A8AA2F57F43FF3B0BD002280ED06AB1F3
:1008E0000878000626D5C888009082420AD9088276
:1008F00018E00E72F8BD20680672F8BD4FF00800CF
:100900000872F8BD0ED22868144B90F82C00824271
:1009100001D21F7006E0B2FBF0F400FB142008B90E
:1009200001201870286890F82C008882BDE8F840F3
:10093000FFF79EBE03200872094900030880F8BD36
:10094000680100206C010020FD15000800500040E7
:100950002801002091150008D5150008600100202D
:1009600076010020704700001C4810B5B0F8021452
:10097000B0F80024914230D0B0F80214B0F800244E
:10098000914205D2B0F80014B0F80224891A03E0AD
:10099000B0F80214C1F580618CB2402C00D940241B
:1009A000B0F80214B0F802242244A0F80224B0F8EF
:1009B0000224B2F5806F02D30022A0F8022408447A
:1009C0002246C02101F072F92146012000F08AFC84
:1009D000BDE81040012000F0ABBC10BD5A03002060
:1009E000704700000149086070470000140401408E
:1009F000014903200860704750010020F0B5CA7813
:100A0000002502F00F03D20601D58A7813430A7835
:100A10004FF00F0E12F0FF0F4FF001021CD00468D0
:100A20000F8802FA05F63740B74211D14FEA850C1C
:100A30000EFA0CF724EA070703FA0CF43C43CF78CC
:100A4000282F02D0482F02D002E0466100E0066164
:100A50006D1C082DE4D304600C88FF2C1ED944685B
:100A60005FF0000606F1080702FA07F50F882F402D
:100A7000AF420FD14FEA860C0EFA0CF7BC4303FAD3
:100A80000CF73C43CF78282F00D14561CF78482F11
:100A900000D10561761C082EE4D34460F0BD4161AD
:100AA00070470161704700000549096889B201EB90
:100AB000C000044901EB4000008980B2704700008B
:100AC000505C0040006000400549096889B201EBB4
:100AD000C000044901EB40008089C0F30900704761
:100AE000505C004000600040044901EB8000D0F8F9
:100AF000000CC0F3013000037047000000500040BC
:100B00000449096889B201EBC000034931F81000BB
:100B100080B27047505C004000600040044901EB27
:100B20008000D0F8000CC0F30110000170470000F5
:100B3000005000400A4810B50168001D0468001DFF
:100B4000006808180BD00822064900F03DF8054956
:100B500020460422BDE81040103100F035B810BD29
:100B6000E8F7FF1F5C000020FEE7000010B5134C03
:100B70002068017A022904D0042902D0062905D070
:100B800015E0FFF775FD2068007A11E0417805292E
:100B900009D10178490606D1C07800F015FB084854
:100BA0000068006A8047074800688068804708201E
:100BB00021680872BDE8104000F030B968010020DB
:100BC000700100206C010020F0B500230A243025BC
:100BD00037261F4611E000BFB4EB107F02D905EBAA
:100BE000107C01E006EB107C01F813C001EB430C14
:100BF00000015B1C8CF80170DBB29342ECD3F0BDBA
:100C000038B50121182000F065F94FF4C074ADF833
:100C1000004010208DF8030003200C4D8DF80200D9
:100C200069462846FFF7EAFE21462846FFF739FFC6
:100C30004FF44160064CADF8000069462046FFF7CE
:100C4000DDFE10212046FFF72CFF38BD00100140CB
:100C5000000C01400448817A044809B1052100E0F4
:100C60000121016070470000800700205001002032
:100C7000FEE770477047000070B50F23C478017815
:100C80000122F4B1144C2468457804F4E064C4F5FE
:100C9000E064240AC4F10406E3408478B5401C40B3
:100CA0002C4301F1E021230181F80034007800F0A9
:100CB0001F018A404009800000F1E020C0F80021B7
:100CC00070BD01F01F0082404809800000F1E02063
:100CD000C0F8802170BD00000CED00E070B52F4D14
:100CE0002868017844784A0606D001F07F00012880
:100CF00028D002282BD035E0092C06D0052C07D0AF
:100D0000032C0ED0012C14D02CE000F0C1FC28E004
:100D1000C1787F292ED8817861BB818851BB807AC8
:100D200027E0C17801291DD18088D8B900F0CCFC1A
:100D300017E0C178012915D1818899B9407A8006D8
:100D40000AD40FE00B2C0DD100F014FD09E0012CAA
:100D500002D0032C03D005E000F09CFB01E000F082
:100D6000C5FC58B10E4920460968496988470328DF
:100D700002D018B108200DE009200BE0094A062036
:100D800000211268084B120403EBD2325160074A6B
:100D9000302111802968087270BD000068010020B0
:100DA0006C010020505C0040006000407801002091
:100DB00010B50F4C2068007A022811D004280FD0FB
:100DC000032804D0052802D0072805D008E0FFF743
:100DD000A9FC2068007A04E006480068C0688047E3
:100DE000082021680872BDE8104000F017B8000024
:100DF000680100206C010020064B521C520803EBD6
:100E0000410105D031F8043B20F8023B521EF9D1D4
:100E10007047000000600040704700000C4810B5AB
:100E200090F82C10002000F003FA0A480068007ABD
:100E3000082802D0092809D006E007494FF480505D
:100E40000880064910200880002010BD012010BD38
:100E5000D8000020680100207601002078010020E1
:100E600010B5012000F0F2FD0648012101600021CB
:100E7000054A0160031D19604FF4E05111800160C3
:100E8000002010BD405C004074010020044A00298D
:100E9000516901D0014300E0814351617047000076
:100EA00000100240044A0029D16901D0014300E04A
:100EB0008143D1617047000000100240044A0029BC
:100EC000116901D0014300E08143116170470000C6
:100ED00000100240044A0029916901D0014300E05A
:100EE000814391617047000000100240044A0029CC
:100EF000D16801D0014300E08143D1607047000018
:100F00000010024030B51F494A6812F00C031E4A17
:100F100003D0042B01D0082B21D002604A680F2394
:100F20001A4C03EA1212A35C0268DA4042604B6872
:100F3000072505EA1323E35C22FA03F383604B6879
:100F400005EAD323E35CDA40C2604968032303EA7D
:100F50009131231F595CB2FBF1F1016130BD4A6848
:100F60004B6802F470124FF0020413F4803F04EB5C
:100F7000924202D04B689B0301D5054B00E0024B27
:100F80005A43CAE70010024000127A003A000020DB
:100F900000093D000149C1F8D800704700004242F5
:100FA0002DE9F041214C072800D0207022781F4DF8
:100FB0000627052104261E48062A0BD2DFE802F088
:100FC000030C11161E27686810B12170BDE8F0816E
:100FD00000F030F82770F9E700F02CF826700120B7
:100FE00022E00220607003202070EFE76078401E4E
:100FF000607060780028E9D12670E7E7026892B255
:1010000042F01002026021700A206070DEE7617811
:10101000491E617061780029D8D1016889B221F038
:1010200010010160277000206860CFE758010020A0
:10103000405C004010B5064C206880B220F00400EF
:101040002060FFF707FE4FF43F40206010BD000016
:10105000405C004007480068052809D1064801683F
:10106000491C0160062903D100210160FFF77CBC07
:101070007047000050010020740000200029018802
:1010800002D041F4005101E021F400510180704789
:101090000029018802D041F0400101E021F0400127
:1010A00001807047002A828801D00A4300E08A4309
:1010B00082807047114910B588420AD184140121F9
:1010C0002046FFF713FF2046BDE810400021FFF740
:1010D0000DBF0B49884202D10121041404E00949E3
:1010E00088420AD10121C4132046FFF7E7FE2046BB
:1010F000BDE810400021FFF7E1BE10BD0030014007
:1011000000380040003C00400246002012890A429C
:1011100000D00120704780897047818170470000AE
:1011200038B5012141F20400FFF7D4FEA020ADF84C
:10113000000018208DF8030003200F4D8DF80200E9
:1011400069462846FFF75AFC4020ADF80000042409
:101150008DF8034069462846FFF750FCADF8004083
:1011600010208DF8030069462846FFF747FC04214C
:101170002846FFF796FC38BD0008014030B50288CC
:101180004C8802F441530A88CD8822438C882C4332
:1011900022430C8922434C8922438C892243CC89E7
:1011A00022431A430280828B22F400628283098ADE
:1011B000018230BD70470000024920F0070008603E
:1011C00070470000505C0040F0B50E490E4D48F6E7
:1011D0008F770B78002148F2800C0BE0CEB205EB44
:1011E0008604D4F8002C3A40324342EA0C02C4F898
:1011F000002C491C9942F1D3044940F0800008605A
:10120000F0BD000028010020005000404C5C004070
:10121000054A21F00101126892B202EBC000034AB4
:1012200002EB400081607047505C0040006000406D
:101230000D4A12683E2992B202EBC0000B4A02EB43
:10124000400209D94809C90601D1401E80B24FF4B5
:10125000004141EA802004E04808C90700D0401C52
:101260008002106070470000505C00400C6000403D
:1012700082000A480244D2F8000C4BF68F731840E3
:10128000CB0401D580F48050890401D580F400504E
:1012900048F280010843C2F8000C7047005000403B
:1012A000810007480144D1F8000C4BF68F721040C2
:1012B00080F4405048F280021043C1F8000C70479F
:1012C00000500040054A21F00101126892B202EB81
:1012D000C000034A42F8101070470000505C004004
:1012E00000600040044A126892B202EBC000034A58
:1012F00002EB400041607047505C004000600040DD
:1013000082000A480244D2F8000C48F6BF73184025
:10131000CB0601D580F01000890601D580F02000B1
:1013200048F280010843C2F8000C704700500040AA
:10133000810007480144D1F8000C48F6BF72104004
:1013400080F0300048F280021043C1F8000C704772
:1013500000500040820005480244D2F8000C48F6D4
:101360008F1318400843C2F8000C7047005000402B
:101370000CB50021264801910091026842F48032A8
:1013800002604FF4A063026802F400320092019AF6
:10139000521C0192009A12B9019A9A42F3D1026842
:1013A000920333D5012100911A490A6842F01002D4
:1013B0000A600A6822F003020A600A6842F0020228
:1013C0000A604168416041684160416841F4806160
:1013D0004160416821F47C114160416841F4E811A9
:1013E0004160016841F08071016001688901FCD5AC
:1013F000416821F003014160416841F00201416010
:101400004168C1F381010229FAD10CBD00910CBDE4
:10141000001002400020024010B50020FFF7BAFD86
:101420000121BDE81040C805FFF73CBD70B5164866
:101430000068174D0004C10B14480144098989B2A2
:1014400000EB41042868017A09290FD02178017046
:1014500061784170A088FEF72EFF296848802089B6
:10146000FEF729FF29688880A089C88028680121A3
:101470000172C08828B1FFF7A7F9BDE87040FFF7F7
:10148000CDBCFFF72BFCF8E7505C0040006000404B
:10149000680100202DE9F04138480068017811F01A
:1014A0007F0102D0022905D066E0417A01F0DF0118
:1014B00041724EE0418800295ED10179F1BB41794A
:1014C000304D21F080040A0605EB84022C4BD2F843
:1014D000002C03D5C2F30112120102E0C2F3013263
:1014E00012031E782346A64246D93AB3807A28B31F
:1014F00008064FEA84000ED52844D0F8000CC0F34B
:101500000110012821D11846FEF79CFF204630210A
:10151000FFF7F6FE19E04619D6F8000CC0F30130CB
:10152000012812D14BF68F7748F28008A4B11846F3
:10153000FEF774FFD6F8000C384000E01CE080F4A1
:10154000405040EA0800C6F8000C0F4800684069A7
:1015500080470020BDE8F0810C4890F82C10002056
:10156000FFF766FED5F8000C384080F4405040EAA2
:101570000800C5F8000CE8E70220EBE7680100204E
:10158000280100200050004070010020D8000020F9
:1015900010B5074C30B107480068006880472068E4
:1015A0000A3010BD216801200882002010BD000013
:1015B0006801002070010020054A13685A8A10B1A2
:1015C0000868104470478888801A18820020704785
:1015D0006801002010B5074C30B1074800688068EA
:1015E000804720680C3010BD21680120088200204F
:1015F00010BD00006801002070010020204910B5D6
:10160000096860B11F48002202800A7853060AD098
:1016100002F07F02012A16D0022A16D001E0022031
:101620000882002010BD497A8A06027802D542F06D
:10163000020201E002F0FD0249060270D1B211D4AB
:1016400001F0FE0110E00F4810BD4A7911071306A2
:101650000D4A02EB9161D1F8001C07D5C1F30111CD
:1016600006E0017841F00101017003E0C1F30131AE
:101670000129F6D00548006800698047E3E70000CB
:10168000680100206201002000500040700100202D
:101690000A4810B500680A4AC1785278914203D8C6
:1016A00082780AB982880AB1022010BD8172054889
:1016B000006840688047002010BD000068010020DD
:1016C0002801002070010020064810B50068417A0A
:1016D00041F02001417204480068C0698047002041
:1016E00010BD0000680100207001002070B51D4889
:1016F0001D4D0368597921F0800005EB80000C0630
:10170000D0F8004C21F0800203D5C4F30114240169
:1017100002E0C4F301342403144D2D78954210D90E
:101720005A8872B96CB19A7A5AB10906D0F8001C7D
:1017300048F2800207D548F6BF73194081F01001C6
:1017400006E0022070BD4BF68F73194081F4805182
:101750001143C0F8001C06480068806980470020DB
:1017600070BD0000680100200050004028010020EA
:101770007001002010B50E4C0E4A20681268C17826
:1017800092694079904721688A7A22B118B908791C
:1017900008B9887808B1022010BD07480068C06801
:1017A000804720684179C172C1780173002010BD63
:1017B000680100206C0100207001002078B41C49F1
:1017C000002000900A681B4B94B21B4A03EB800573
:1017D000D5F8005CADB242F82050401C0828F5D383
:1017E00044F48060086040F00100086020F00104CB
:1017F0000C600F48001D05686D05FCD54FF6FF35E0
:101800000560002052F8205003EB8006ADB2C6F808
:10181000005C401C0828F5D344F008000860086804
:1018200080B240F00400086078BCFFF7E1B8000027
:10183000405C004000500040600700204FF0E02175
:101840000428086903D020F004000861704740F0C4
:101850000400FAE7704700000F4810B5016841F036
:101860000101016041680D4A1140416001680C4A64
:1018700011400160016821F480210160416821F478
:10188000FE0141604FF41F018160FFF771FD0549C2
:101890004FF00060086010BD001002400000FFF82B
:1018A000FFFFF6FE08ED00E070B5154C40F2255143
:1018B000204600F035F800280ED0204600F0BEF893
:1018C000C2B2104801880B0406D44C044FF0000348
:1018D00006D50A2A01D0038070BD41F400410DE015
:1018E0000D2A09D0C1F30D04074D491C89B22A55B0
:1018F0000180C729EFD870BD41F48041018070BDDF
:1019000000380140340000201202002000298189A3
:1019100002D041F4005101E021F40051818170476F
:1019200030B501F01F0201240025C1F3421304FA6F
:1019300002F2012B0FD0022B0FD0838A4FEA112124
:101940000088134204FA01F400EA040001D000B157
:101950000125284630BD8389F0E7038AEEE710B5FC
:10196000C1F3421301F01F040121A140012B07D054
:10197000022B07D01430002A026805D00A4304E085
:101980000C30F8E71030F6E78A43026010BD000023
:1019900030B50446008A85B00D464CF6FF7108400C
:1019A000E98801432182A1894EF6F3100140A888FD
:1019B0002A8910436A890A431043A081A08A4FF6FE
:1019C000FF410840A9890143A1826846FFF79AFABE
:1019D0001948844201D1039800E00298A1890904C2
:1019E00000EBC00101EB0010296801D5490000E0BF
:1019F0008900B0FBF1F06422B0FBF2F109010B09A0
:101A00006FF018056B4300EB8300A3891D044FF0B2
:101A1000320306D503EBC000B0FBF2F000F0070084
:101A200005E003EB0010B0FBF2F000F00F000843FC
:101A3000208105B030BD0000003801408088C0F32F
:101A4000080070474FF48020FEF7CCBF38B50F4D2B
:101A50004FF40074012804D021462846FFF71FF8F0
:101A600038BD01211020FFF735FAADF800401020F5
:101A70008DF8030003208DF8020069462846FEF722
:101A8000BDFF21462846FFF70CF838BD0010014085
:101A900006480549022201600A72064A0449C0E963
:101AA000011208680047000080070020680100203C
:101AB000D80000202C01002038B514208DF800003B
:101AC00001208DF8010000248DF802408DF80300FC
:101AD0006846FFF7D1F82A208DF800008DF8014004
:101AE0006846FFF7C9F838BD2DE9F0414C4E88B083
:101AF000002430684B4D688068884B4F3988084017
:101B0000800507D54FF6FF5030602878401C2870BC
:101B1000FFF7A0FA688839880840000401D5FEF76D
:101B2000CFFB688839884FF6FF380840400504D558
:101B3000C6F800803D484068804769883888014081
:101B4000890402D54DF6FF71316069880140C804EF
:101B500005D54EF6FF7030600020FFF721FA688847
:101B60003988084000050BD53148007810B1FFF7DF
:101B700025FE02E00220FFF713FA4FF2FF703060FB
:101B8000688839880840C00546D54FF6FF60306048
:101B90002348001D00684FF00002000438D5686833
:101BA000401C68606868032833D91D48001F01681D
:101BB00009072ED4016889B2A9601E494FEA0D03B6
:101BC00001EB8407D7F8007CBFB243F82470641C93
:101BD000082CF5D3AC6844F00104AC60AC68A4B246
:101BE0000460AC6824F00104AC60AC68A4B204608A
:101BF00030684005FCD5C6F80080002053F820402E
:101C000001EB8006A4B2C6F8004C401C0828F5D3AE
:101C10006A600720FFF7C4F908B0BDE8F081000052
:101C2000445C00407800002074010020D8000020AF
:101C30005401002000500040FFF756BF10B5044685
:101C400001210420FFF746F90C49086824B14FF63A
:101C5000FD721040086010BD80B240F002000860C4
:101C60000748016821F47F210160016841F44C318B
:101C7000016004490020C1F8B00110BD405C004083
:101C80000408014000002142054900200860054980
:101C90004FF43F4008800249091F08600020704748
:101CA000445C004074010020FEE70000094B10B5C1
:101CB000521C520803EB41010AD000BF10F8013B4F
:101CC000521E10F8014B43EA042321F8043BF5D1DE
:101CD00010BD000000600040104A10B500211268DD
:101CE000212802D0202807D016E0107800F07F00CD
:101CF000212811D10A4908E0107800F07F0021283E
:101D000000D10849084B2020187029B100209161AA
:101D100050828847002010BD022010BD68010020BD
:101D2000451D0008B91E0008BC0000200149FFF74E
:101D300043BC0000D00000200149FFF73DBC00007B
:101D4000C800002008B10448704704490820096809
:101D50000882002070470000C000002068010020B9
:101D600005490968C978042901D900207047034A48
:101D700002EBC101FFF720BC680100200801002030
:101D800009B9012801D902207047002070470000DE
:101D900007490968097801F07F01212903D1022848
:101DA00003D0222801D00220704700207047000095
:101DB00068010020334810B50068334A0021817261
:101DC000D2794272C1720846FFF7F6F94FF40071FA
:101DD0000020FFF7BFFA10210020FFF791FA402101
:101DE0000020FFF715FA80210020FFF76BFA002092
:101DF000FEF73CFB254890F82C100020FFF718FA5E
:101E00000020FFF74DFA00210120FFF7A3FAC021BF
:101E10000120FFF757FA20210120FFF771FA002176
:101E20000120FFF725FA4FF4C0610220FFF792FA74
:101E30004FF480710220FFF745FA00210220FFF7DE
:101E400017FA20210220FFF75BFA00210320FFF799
:101E500081FA4FF488710320FFF7DAF9402103205B
:101E6000FFF7E6F94FF440510320FFF701FA002194
:101E70000320FFF745FA0020FFF7A6F904490120E7
:101E8000086010BD68010020E2250008D80000208D
:101E9000500100200348807A002802D00249052022
:101EA000086070478007002050010020014904208D
:101EB000086070475001002008B104487047044989
:101EC000082009680882002070470000C000002038
:101ED0006801002006490878202808D1054A00201A
:101EE000A2F80204A2F80004034A108008707047A8
:101EF000BC0000205A03002058000020704700005A
:101F000010B5FEF717FE0548002400688472FEF73E
:101F1000A7FFFFF7B9FE0248046010BD680100206A
:101F2000500100207047000010B56FF00400FFF76B
:101F300085FC094809490068B0FBF1F0C1B20848C6
:101F400001EB41020170C2EBC1114FF6FF7202EAD0
:101F5000C101418010BD00001000002000127A0075
:101F6000300000200B49498848434FF0E021486188
:101F700000228A61086940F0010008610869C3070E
:101F800001D0C003FAD5086920F0010008618A6118
:101F9000704700003000002070B5114C0122032171
:101FA0002046FFF77FF80F4D01212846FEF76EFA15
:101FB0000C4E012114363046FEF768FA2020FEF759
:101FC000E3FA0028FAD0002203212046FFF76AF83E
:101FD0002846FEF767FA3046BDE87040FEF762BA61
:101FE000003001401C00024010B506490648FEF7CB
:101FF000DBFA044904485831BDE810401430FEF7BC
:10200000D3BA00007C0100201C00024010B5064934
:102010000648FEF7C9FA044904482C31BDE81040CF
:102020001430FEF7C1BA00007C0100201C00024001
:10203000FFF77AFF4FF4165000F0CAF9FEF7E0FD03
:10204000184C0120C4F8A801C4F8AC01C4F89001F0
:1020500004F5C874FFF7FAFC4FF4FA752846FFF749
:1020600081FF0020FFF7EAFD2846FFF77BFF0120F4
:10207000FFF7E4FDFFF7D0F9FFF71EFDFFF708FDBE
:10208000FFF74EF8FEF7AEFA074800F027F90020F8
:10209000E061206000F0ECF900F008F800F08EFA42
:1020A000F8E70000008021424054890070B5494D96
:1020B0000026C5F8A861484C152826D2DFE800F0B4
:1020C0000B0D1526434B85858585858585858585FD
:1020D0005085545D780006204CE0062000F032FA6E
:1020E000012000F02FFA002044E0062000F02AFA38
:1020F0003A4800F051FA2670002000F023FA2078C8
:10210000401CC0B220701C28F6D35EE0062000F010
:1021100019FA667006E032A1085C00F013FA6078E4
:10212000401C607060782EA1095C0029F3D1C0B218
:1021300004E0002000F006FA2078401C2070C0B2B5
:102140001028F6D341E0062000F0FCF9FF2000F053
:10215000F9F9FF200EE0062000F0F4F9082009E06C
:10216000152000F0EFF9B6E700F082F930F0080032
:10217000B1D0152000F0E6F927E000F0B1F9606079
:1021800000F0AEF91B4EA06004213046FEF787FC3C
:10219000606808B100F06EF8062000F0D3F9A0687E
:1021A00008B100F029F804213046FEF77AFC0CE073
:1021B00000F0ACF9E0600028DBD0062000F0C2F9A6
:1021C000E06800F08BF800F0E7F90120C5F8A801FD
:1021D00070BD000000802142000000203F001D0073
:1021E00073657270726F672D53544D33322F4744AD
:1021F00000000000000801402DE9F041194E04469E
:10220000308808B100F0AEF94025402C08D3FFF724
:10221000EBFEFFF7C1FE358000F0A4F9403CF4E787
:10222000002C1CD0104D0020104FDFF84480A86017
:1022300012E000213846FEF770FF01213846FEF714
:1022400063FF0028F9D03846FEF765FF0146A8680D
:1022500008F80010401CA860A042EAD33480BDE812
:10226000F08100004E0000202400002000300140DA
:10227000DA02002070B5174E174D044630782988D1
:10228000401AA04222D8241A04E000BF00F0F0F85F
:1022900000F08AF8288831788842F7D116E000BF2C
:1022A00000F0FCF8307840280BD2241A04E000BF7C
:1022B00000F0DEF800F078F828883178884205D000
:1022C000F6E7403CFFF7A2FEFFF766FE002CE7D1E1
:1022D00070BD00004C0000205000002070B5284D5B
:1022E00000214FF4827229806A80A980E9802981C7
:1022F0004FF400726A81E9810722224C2A82382237
:102300006280214A62605200904202D3302363808F
:1023100062601E4A904202D32823638062601C4A96
:10232000904202D32023638062601A4A904202D313
:10233000182363806260184A904202D3102363809E
:102340006260164A904202D3082363806260144A96
:10235000904201D361806260124E3046FEF7AAFEC1
:102360006088A88106493046FEF708FF0021304604
:10237000FEF784FE01213046FEF78AFE606870BDDC
:102380000002002024000020A24A0400882A110034
:102390001055220020AA44004054890080A8120150
:1023A000005125020030014010B5084C014620467E
:1023B000FEF7B3FE01212046FEF7A6FE0028F9D065
:1023C0002046BDE81040FEF7A6BE000000300140E8
:1023D00070B5054686B0012144F20400FEF77AFD8F
:1023E0004FF40070ADF8100003248DF8124018204F
:1023F0001D4E8DF8130004A93046FEF7FFFA301584
:10240000ADF8100004208DF8130004A93046FEF743
:10241000F5FA25208DF814008DF815408DF816403A
:1024200001208DF8170005A8FEF726FC0020ADF866
:102430000400ADF80600ADF80800ADF80C000C2063
:102440000A4CADF80A00009569462046FFF7A0FA4D
:10245000012240F225512046FFF781FA0121204652
:10246000FFF754FA06B070BD000801400038014083
:1024700010B5084CA0882178884201D100F00EF8F0
:10248000A0880549401C80B2A080084410F8010CC7
:1024900010BD00004C0000201A03002010B54FF4BE
:1024A00000540320FEF720FBA042FAD10320FEF7E0
:1024B0000BFB094CC0B24028207001D9402020708D
:1024C00040224FF488710548FEF796FC0320FEF782
:1024D000E7FE0020A08010BD4C0000201A03002061
:1024E00010B5094C0020A060FFF7C2FFA060FFF705
:1024F000BFFFA16841EA0020A060FFF7B9FFA16813
:1025000041EA0040A06010BD4C00002010B50C4C0A
:102510000020A060FFF7ACFFA060FFF7A9FFA16853
:1025200041EA0020A060FFF7A3FFA16841EA004054
:10253000A060FFF79DFFA16841EA0060A06010BDA8
:102540004C000020064A054B51885854491C88B25B
:102550005080402801D100F005B87047DA02002011
:102560004C00002010B50120FEF7D8FA2028FAD13F
:10257000074CC02107486288FFF798FB618801205B
:10258000FEF7B0FE0120FEF7D3FE0020608010BDF4
:102590004C000020DA02002010B50446C0B2FFF75C
:1025A000D1FFC4F30720FFF7CDFFC4F30740FFF7C7
:1025B000C9FF200EBDE81040FFF7C4BF03484088A4
:1025C000002801D0FFF7CEBF704700004C0000206C
:1025D0001201000202000040830440570002010281
:1025E000030109024300020100C032090400000196
:1025F0000202010005240010010524010001042449
:1026000002020524060001070582030800FF0904F1
:102610000100020A00000007050302400000070550
:102620008102400000040309042603530054004DB6
:10263000006900630072006F0065006C0065006354
:1026400000740072006F006E006900630073003256
:1026500003530054004D003300320020005600693F
:102660000072007400750061006C00200043004F90
:10267000004D00200050006F007200740020002008
:1026800000000000A4260008000000207C010000DB
:102690006C010008382700087C010020840C000031
:1026A000C8010008011184A24A04000912010203B2
:1026B00004060708096D0204060822091626141AE2
:1026C00003531254124D1233021F321369090C1CAA
:1026D00008750C040A11E1245133C201120813D009
:1026E000253308121AE2082A439A121F1408B51D4E
:1026F0001408D51E1B08FD0413D91C1B0891101AC1
:1027000081041A39041A2D041A6104413240132538
:10271000262A08F91A290832261A4F0829B8225AF7
:1027200033201A1A046729741A954C0916A41AAD95
:082730001C4129920124000064
:0400000508000131BD
:00000001FF
